:020000041000EA
:1008000042550000B20A0000000000000000000095
:1008100000000000000000000000000000000000D8
:020000041000EA
:1008200000480047290800100348854600F006F8F4
:10083000004800479118001000020020064C0125D6
:10084000064E05E0E36807CC2B430C3C9847103478
:10085000B442F7D3FFF7ECFF600800106008001007
:020000041000EA
:0417FC0000000000E9
:020000041000EA
:1018000030B556254124204730B55A25412420477C
:1018100001460DE0084A00E0521E002AFCDC074A9F
:10182000126801231B039A43D218044B1A60491E05
:101830000029EFDC70470000B80B000000500040AA
:10184000F1B50124A4072068400840002060A615D7
:10185000FF27F537009D0CE02068304320603846B4
:10186000FFF7D6FF2068B04320603846FFF7D0FF6F
:101870006D1E002DF0DC7D200001FFF7C9FF03483D
:101880000168821411430160E4E700000050004049
:1018900010B50124A4076068000246D5A16843483A
:1018A000621488438118E120000201436068084007
:1018B000C10701D0012161600106490E08D06168AD
:1018C000616861686168616861686168FE21616082
:1018D000C10502D5FF2101316160810502D50121D9
:1018E00049026160810400D56260410402D5012192
:1018F00089036160000402D50120C0036060606854
:10190000A268072189029143084029D0410502D5E8
:10191000012189026160010502D50121C9026160CE
:10192000C0041DD50120000319E0A068012149076A
:101930000843A060A0682043A060A0688900084315
:10194000A0606068000301D5080B08E06068C00271
:101950000BD50020C043FFF753FF01200005606056
:101960000020FFF751FF002010BD6068400302D542
:1019700001208004F3E76068400202D50120800561
:10198000EDE76068800202D501204005E7E7606866
:10199000C00302D501200004E1E76068800302D59E
:1019A00001204004DBE70120FFF74AFFFF030000AE
:020000041000EA
:0453FC0000000000AD
:0400000510000829B6
:00000001FF
