:020000041000EA
:1008000042550000B20A0000000000000000000095
:1008100000000000000000000000000000000000D8
:020000041000EA
:1008200000480047290800100448854600F008F8F1
:1008300000480047192D0010C046C04600020020A5
:10084000064C0125064E05E0E36807CC2B430C3C23
:1008500098471034B442F7D3FFF7EAFF840800103A
:100860009408001002E008C8121F08C1002AFAD13B
:1008700070477047002001E001C1121F002AFBD120
:1008800070470000803600100002002014000000B5
:0408900064080010E8
:020000041000EA
:0417FC0000000000E9
:020000041000EA
:1018000030B50B46014600202022012409E00D4698
:10181000D5409D4205D31D469540491B2546954020
:1018200040191546521E002DF1DC30BD70B5002464
:101830002546002801DA01244042002901DA012569
:101840004942FFF7DDFFAC4200D04042002C00D0FF
:10185000494270BD034603220870000A491C521E0B
:10186000FAD51846704700000EB5C217C10F504098
:10187000CA0740180021054B0293019200910A46C5
:101880000B4600F071F803B000BD00003304000007
:101890004A0009030123090B1B051943094B10B525
:1018A000520D9A4201DA002010BD064B34339A42A1
:1018B00003DC9A1A00F03AF810BD03495118884029
:1018C00010BD0000FF030000CDFBFFFFF0B51FB40B
:1018D0000646002082B005464024019100901BE09E
:1018E000019922460F46304600F020F8049A059BE5
:1018F000801A994110D310461946224600F0A0F9EB
:10190000361A8F410197224601200021009F00F0E6
:1019100097F938184D4100902046641E0028DFDCFE
:10192000019B00982946324607B0F0BD10B5202A29
:1019300004DB0846203AD040002110BD0B46D340BE
:10194000D0402024A21A91400843194610BD10B57A
:10195000002B08DA0024401C614192185B411A43B5
:1019600001D14008400010BDF0B51FB482B005465B
:101970000C0003D0084600F02BFF02E000F028FF27
:101980002030024600902146284600F059F9049B79
:10199000059A04460F4618431143084314D01846CD
:1019A00010431BD0009840210A1A18460599FFF7EA
:1019B000BDFF05460E46009A0599049800F040F9CF
:1019C000084305D0012004E02046394607B0F0BDA9
:1019D0000020C11705430E432C43374300990E984E
:1019E0006305401A7905E40A00220C43FD0A0A3017
:1019F00002D500200146E9E70105101969410C9C58
:101A00000D9D00196941FFF7A2FFDFE7F0B507461A
:101A10000846584087B0C00F049048000E46590051
:101A200040084908BC1A884105D2384631461E464E
:101A300017460B4602465800400810434DD0300D63
:101A4000039040055900400D490D0590401A029041
:101A5000402873DA18030121000B0905084301909F
:101A600004980092002806D01146019A49420020AD
:101A7000904100910190029840210A1A0199009822
:101A800000F0DEF805460C466B4607CB00F0E8F8A0
:101A9000C0197141039A0E0D0023D71756401A46FC
:101AA0007A40164344D0049A002A2DD0029A012A83
:101AB000039A15DC1205C01A914101263605001C57
:101AC0007141D20F059ED2070093019202962A46D9
:101AD0002346FFF749FF07B0F0BD38463146FAE725
:101AE0001605234A0F46B218C01AB741012109054D
:101AF000001C4F4100187F41114618187941E20F30
:101B000010436D19644113E0E2076D081543640842
:101B1000C2071443039A01261205C01A91413605E3
:101B2000001C7141CE07400830434908C01851419C
:101B30002A462346FFF70BFFCDE7FFE70498012273
:101B40004000C117121A00238B4104983146C41774
:101B5000381AA141EEE730B40124E407634030BCF9
:101B600054E730B40124E407614030BC4EE7000084
:101B70000000E0FFF8B50546480040080C46284341
:101B800004D06000184A400D904201DD2846F8BD9F
:101B900015493539884210DC88420BDB290D2003BA
:101BA00008432903014305D0E00F1049C00741183D
:101BB0000020F8BD00200146F8BD161A4020821B07
:101BC0002846214600F03CF8074600912846214669
:101BD0003246FFF7ABFE3A46009BFFF7B8FE3246AF
:101BE00000F02EF8F8BD0000330400000000F03FC4
:101BF00010B5002904DB0124E40740428C41214652
:101C0000002B04DB1C460123DB075242A3418B421D
:101C100000D1824210BD000010B5002904DB012470
:101C2000E40740428C412146002B04DB1C46012383
:101C3000DB075242A341994200D1904210BD0000FF
:101C400010B5202A04DB0146203A9140002010BD47
:101C5000914020239C1A0346E3401943904010BD55
:101C600010B5202A06DBCB170846203A1041C117D1
:101C70000B4306E00B461341D0402024A21A9140AA
:101C80000843194610BD000030B5212541242047E6
:101C900030B50D254124204730B50E25412420477D
:101CA00030B50C254124204730B51125412420476B
:101CB00030B50025004C20470104001030B5032545
:101CC0004124204730B502254124204730B5012565
:101CD0004124204730B500254124204730B5542504
:101CE0004124204730B551254124204730B55225A5
:101CF0004124204730B50225004C20470104001044
:101D000030B559254124204730B55A254124204774
:101D100010B5014601A000F04BFD10BD6572726F59
:101D2000723A20256400000001208007016801222A
:101D3000114301600168821511430160016882133B
:101D400011430160016882111143016001680222A0
:101D5000114301600168421511430160016842139B
:101D60001143016001684211114301608168C21191
:101D70001143816070470000F0B503465E488C4611
:101D80000168080A0002C90F06D01E245A4D0443F8
:101D90002C60E124204328608E465849086880243E
:101DA000204308605749564808609F204243081D59
:101DB0009E320260C60653481030066052480860E2
:101DC0004D4810380568801405431888002802D053
:101DD0009868007800E060464849091F08600020C4
:101DE000464F01225880F021D8803F1D39603C6861
:101DF000E10604D5F02139600024102108433E4952
:101E000010390D603F4910310E6849060E4080219F
:101E100021403143EBD0002E01D0042156E02107B0
:101E200023D400223968CC070BD09C88944206D971
:101E3000324C083C2468DE68B454521C01E0012492
:101E400020432D4C103C25602E4C10342468012674
:101E50007607344070260E402643E3D0DA80C2076E
:101E600029D0264A083A126825E039688C070FD431
:101E70001C88944202D99C68A45C00E064461F4E12
:101E8000361F34601C88944201D202242043521C25
:101E9000194C103C25601B4C103424680126760731
:101EA000344050260E402643DFD0184D521EAA4221
:101EB00000D92A465A808A0601D5202210434906B5
:101EC00001D540210843002C01D0082108430121FD
:101ED0000C4A4907103211600D4A01211160094A6C
:101EE000002111607146002904D0034A1168090AD3
:101EF00009021160F0BD0000105000400870004061
:101F0000B40000B000580040B40100B0FFFF000072
:101F10000818004070B51546044600290FD1014647
:101F20003348FFF7CFFE060009D032A000F040FC96
:101F300031463DA000F03CFC3CA000F039FC2146BD
:101F40009C20FFF7C3FE060001D039A009E023461C
:101F5000042231218020FFF79FFE0646042809D97C
:101F600042A000F025FC31462FA000F021FC2FA05C
:101F700000F01EFCC12022460021C001FFF788FEB0
:101F8000060009D047A000F013FC314626A000F05F
:101F90000FFC26A000F00CFC0020205EC117090FEA
:101FA00008180003000C010A28726972642801D91C
:101FB000642002E0002803D101202872000A687220
:101FC00046A000F0F5FB0020205EC117090F08189D
:101FD000011147A000F0ECFB46A000F0E9FB61888E
:101FE00011A000F0E5FB45A000F0E2FB70BD000091
:101FF0008080000020202020202D3E4572726F72CC
:1020000020647572696E67204C69625F4D6561730B
:102010005F436F6D705F54656D702C2073746174D5
:102020007573203D20000000257800000D0A000097
:1020300020202020202D3E4572726F722064757220
:10204000696E67204C69625F4D6561735F526177AD
:102050005F416363656C65726174696F6E2C207398
:102060007461747573203D20000000002020202042
:10207000202D3E4572726F7220647572696E672002
:102080004C69625F436F6D705F4175746F5F416350
:10209000635F4F66667365742C2073746174757327
:1020A000203D200020202020202D3E4572726F729E
:1020B00020647572696E67204C69625F436F6D7052
:1020C0005F416363656C65726174696F6E2C207328
:1020D0007461747573203D200000000020202020D2
:1020E000416363656C65726174696F6E3A200000CC
:1020F0002564000020672C2000000000204C534283
:102100000D0A0000F8B50F460446014616468A201F
:10211000FFF7E0FD050009D020A000F049FB2946AB
:102120002CA000F045FB2CA000F042FB002F214624
:1021300002D0C120C00101E04120C001FFF7B0FD85
:10214000050009D025A000F033FB294621A000F0AE
:102150002FFB21A000F02CFB0020205EC117090FEF
:1021600008180003000CB071000AF07128A000F0FC
:102170001FFB0020205EC117090F0818011128A0BD
:1021800000F016FB27A000F013FB618811A000F0FF
:102190000FFB26A000F00CFBF8BD00002020202043
:1021A000202D3E4572726F7220647572696E6720D1
:1021B0004C69625F4D6561735F5261775F50726514
:1021C00073737572652C20737461747573203D2070
:1021D00000000000257800000D0A000020202020CB
:1021E000202D3E4572726F7220647572696E672091
:1021F0004C69625F436F6D705F5072657373757287
:10220000652C20737461747573203D2000000000FC
:102210002020202050726573737572653A2000008B
:1022200025640000206B50612C200000204C53429C
:102230000D0A000070B50E46044601468020FFF7E7
:102240003DFD050009D01AA000F0B2FA294626A0EB
:1022500000F0AEFA25A000F0ABFA0020205EC11716
:10226000490F0818C010642148432149FFF7DEFADE
:10227000FFF7FAFA01F0A4F9FFF70AFBB0721DA00C
:1022800000F096FA0020205EC117490F0818C1100F
:102290001EA000F08DFA1EA000F08AFA0421615EF3
:1022A00011A000F085FA1CA000F082FA70BD0000B9
:1022B00020202020202D3E4572726F72206475729E
:1022C000696E67204C69625F4D6561735F436F6D36
:1022D000705F537570706C79562C207374617475CF
:1022E00073203D2000000000257800000D0A00004A
:1022F000B80B000020202020537570706C792D568B
:102300006F6C746167653A2000000000256400006E
:10231000206D562C20000000204C53420D0A000076
:1023200070B50E46044601468020FFF7CBFC050041
:1023300009D014A000F03CFA8021284600F0D0F922
:102340001DA000F035FA0020205EC117490E0818C4
:10235000C011707119A000F02BFA0020205EC11787
:10236000490E0818C1111AA000F022FA19A000F0B5
:102370001FFA0421615E19A000F01AFA18A000F0FB
:1023800017FA70BD20202020202D3E4572726F72FA
:1023900020647572696E67204C69625F4D65617378
:1023A0005F436F6D705F54656D702C207374617442
:1023B0007573203D200000000D0A00002020202021
:1023C00054656D70657261747572653A2000000025
:1023D0002564000020646567432C200025780000F8
:1023E000204C534220287363616C65642054656DF2
:1023F00070290D0A00000000F8B53A4C0025E0688D
:10240000394FC6B23878C0075DD1384908600A68CC
:10241000C80402430A600A680723DB061A430A60FD
:102420000A6812091201121D0A600A68F0239A4311
:102430000A600A681B039A43C30BD2180A600A6831
:102440000F231B059A430A604A68FF231B029A4325
:102450004A604A68120A12027F324A604A68C3110F
:102460001A434A604A681B0A1A434A600A68204BAA
:102470001A430A608217E260C217A26043085A60DA
:10248000226902432261A068C007FCD00868184A8C
:10249000D2431040086048681649000C091A0846E3
:1024A0006E384C2801D302250DE0B878012810D0F1
:1024B000022811D0032813D002250F4A480880189B
:1024C000FFF79EF97870E66008490020086028460A
:1024D000F8BDE120800101E0E12000024143ECE78A
:1024E0000648FBE7001000400802002000500040B2
:1024F00000010001FFFF000000A8CB1800770100D9
:1025000070B50122920713680124234313601368F6
:102510000824A343136013689415A343136013683E
:10252000D41423431360164A164B1070C607FF25B8
:1025300000209C1078359170002E06D0012913D010
:10254000022915D0032906D116E0012906D0022957
:1025500006D0032906D05070908070BDD02004E0D2
:10256000342006E01F2008E0E2205070938070BD08
:1025700038205070948070BD22205070958070BDBE
:1025800008020020C4090000F0B500218C4636493D
:10259000CA68364BD2B296461A78D407344A32D03B
:1025A000344C14605D78324A2C022C4354605468D9
:1025B0009B881B041C43546095042B68D6141C464E
:1025C000B44333430326F643CE602C6015680126DE
:1025D00036063543156015689615354315600F2688
:1025E0008E6003256D0295600A69AF053A430A6162
:1025F0001F4A95686D05AD0FFBD00825C6071E4E16
:1026000004D0336003E01B4CE41CCAE7346040088C
:102610000F268E600126760296600E693E430E619B
:1026200096687605B60FFBD06D1E2D062D0EE5D1F2
:10263000114803600F208860012040029060086903
:102640003843086190684005800FFBD090684005D2
:1026500001D50120844600201060032040029060D4
:102660007046C8606046F0BD0010004008020020BF
:1026700000500040010004A80000004010B50446CE
:10268000C80904D015A000F085F8002824D1200B3B
:102690003030392800D9C01DFFF776FF00281BD144
:1026A0002005000F3030392800D9C01DFFF76CFF1E
:1026B000002811D12006000F3030392800D9C01D64
:1026C000FFF762FF002807D12007000F30303928BC
:1026D00000D9C01DFFF758FF10BD00003078000082
:1026E00010B50446C80904D029A000F053F800280A
:1026F0004CD1200F3030392800D9C01DFFF744FFDE
:10270000002843D12001000F3030392800D9C01DE6
:10271000FFF73AFF002839D12002000F3030392866
:1027200000D9C01DFFF730FF00282FD12003000F74
:102730003030392800D9C01DFFF726FF002825D1E9
:102740002004000F3030392800D9C01DFFF71CFFCE
:1027500000281BD12005000F3030392800D9C01DBA
:10276000FFF712FF002811D12006000F3030392862
:1027700000D9C01DFFF708FF002807D12007000F70
:102780003030392800D9C01DFFF7FEFE10BD000013
:102790003078000010B50446002005E00846FFF739
:1027A000F3FE641C002802D121780029F6D110BD67
:1027B0000FB410B503A9044B044A029800F02CF89A
:1027C00010BC08BC04B018478D2C0010100200206B
:1027D0002021020C01D010211046020A01D010461F
:1027E0000839020901D01046091F820801D010469D
:1027F000891E420801D0881E7047081A704730B4FD
:102800007446641E2578641CAB4200D21D46635D8D
:102810005B00E31830BC1847FFB591B00F46054682
:10282000002606E025280AD0149A139990476D1CBB
:10283000761C28780028F5D1304615B0F0BD00246C
:1028400000940121F34A029400E004436D1C2B78AC
:102850000846203B98401042F7D128782A280ED00D
:102860000222287801463039092915D800990A230F
:1028700059433039401814436D1C0090F1E701CFE3
:102880000090002805DA01204003044300984042EC
:102890000090022004436D1C28782E2815D10420B6
:1028A000044368786D1C2A280AD101CF6D1C029060
:1028B0000BE002990A225143303940186D1C0290F6
:1028C0002878014630390929F3D928786C2810D0A6
:1028D00006DC4C281AD068280ED06A2817D104E0EC
:1028E000742813D07A2812D110E001204005044347
:1028F0000CE00121090501E0032109050C43697879
:10290000814203D10120000524186D1C6D1C28781C
:102910006E281ED00CDC632831D004DC00288BD05C
:10292000582811D1B2E064287BD069280CD178E016
:1029300073282DD004DC6F2870D0702804D1A7E054
:1029400075286CD078286BD0149A13999047761C10
:1029500062E06002400F022807D003280AD0042852
:1029600038680AD006603F1D56E03868F1170660E7
:102970004160F8E738680680F5E70670F3E73878D5
:10298000694608740020487404A80390012003E0FD
:10299000386803900020C0433F1D61070FD5002118
:1029A00001E00199491C029A0191914213DA814296
:1029B000F7DB019A0399895C0029F2D10BE0002131
:1029C00001E00199491C01918142FADB019A0399C6
:1029D000895C0029F5D101990098139A401A00905A
:1029E0002146149B00F03CF901998019461807E034
:1029F000039803990078491C0391149A13999047FE
:102A00000198401E0190401CF2D12146149B139A5C
:102A1000009800F015F986196D1C0AE741E033E0D3
:102A200034E00A200021049005916002410F022940
:102A300005D001CFC2179446032905D007E0FF1D3A
:102A4000FF08FF0003CF06E000B2C2179446042936
:102A500002D140B2C1178C4600226146944506DA85
:102A60000A460021404291418C462D2102E0210579
:102A700004D52B216A461176012103E0E10701D03C
:102A80002021F7E7019155E00A200BE0102009E032
:102A90001020049000210420044308200591029096
:102AA00003E008200021059104906002410F0229F3
:102AB00005D001CF00229446032906D006E0FF1D71
:102AC000FF08FF0003CF8C4603E080B2042900D149
:102AD000C0B20021019121072CD5297803917029DA
:102AE00006D0049A1021059B4A401A4305D00EE0F7
:102AF00040216A461176012108E06146014306D073
:102B000030216A4611760399517602210191049A87
:102B10000821059B4A401A430CD16146014301D16B
:102B2000610707D530216A4611760121019102998A
:102B3000491E02912978582904D037A103910FA981
:102B40000F910DE039A1F9E76146059B049AFEF764
:102B5000BDFE039B8C469B5C0F9A521E0F92137016
:102B600061460143F0D10F9807A9081A203003905D
:102B7000600704D5012000048443029801E001208D
:102B800002900399884201DD401A00E000204118BC
:102B90000290019809180098401A0090E00306D4AA
:102BA0002146149B139A009800F05AF886190020C9
:102BB000049008E006A9085C149A139990470498B9
:102BC000401C761C049001998842F3DBE0030CD58D
:102BD0002146149B139A009800F042F8861904E0ED
:102BE000149A302013999047761C0299481E02903F
:102BF0000029F5DC08E00F980F990078491C0F9127
:102C0000149A13999047761C0399481E0390002943
:102C1000F1DCFAE609280100303132333435363739
:102C20003839616263646566000000003031323318
:102C300034353637383941424344454600000000B8
:102C4000F8B5044600251E461746880404D405E05E
:102C500039462020B0476D1C641EF9D52846F8BDC2
:102C6000FFB50446002581B01E46C80301D53027B4
:102C700000E02027880404D505E038460399B047D2
:102C80006D1C641EF9D5284605B0F0BD704730B5FF
:102C900005460024600888420BD2285CE30705D073
:102CA000000900F008F81055641CF3E70007000F56
:102CB000F7E7002030BD00B50F2801D9012000BD85
:102CC0000300FFF79CFD0F090B0D0F1113151719CA
:102CD0001B1D1F2123252700002000BDD22000BD81
:102CE000552000BD872000BD992000BD4B2000BDB0
:102CF000CC2000BD1E2000BDE12000BD332000BD62
:102D0000B42000BD662000BD782000BDAA2000BD13
:102D10002D2000BDFF2000BDF0B500250124A40733
:102D2000216893B00420814321602168000281431F
:102D30002160606800027DD5A168FE48FE4E884390
:102D400061144018E121090208433060606831686D
:102D5000084070607068C00701D001206060706832
:102D60000006400E08D0606860686068606860684F
:102D700060686068FE2060607068C00544D5FF2010
:102D80000130606001210020FFF7BAFB1421102000
:102D9000FEF7A8FF002802D00120FEF7B9FFFFF7D9
:102DA0002BFB002802D00420FEF7B2FFFEF79EFFA7
:102DB000002802D00320FEF7ABFFE0A0FFF7F8FCED
:102DC000694604A8FFF7ACFA6068400402D5012008
:102DD000800360606A46012104A8FFF793F96068E8
:102DE000800402D50120400360606A46012104A8E6
:102DF000FFF790F86068000402D50120C00360600E
:102E0000694604A8FFF716FA7068800502D501200C
:102E100040026060C8484068800441D501204003FA
:102E2000606001210020FFF76BFBC9A0FFF7C0FC29
:102E3000694600E0EFE004A8FFF772FA6A46012154
:102E400004A8FFF75FF96846408A01460A390A304C
:102E50008FB286B23BB232B201211020FEF74AFF98
:102E6000C5A0FFF797FCCDA0FFF794FC8021384662
:102E7000FFF704FCCFA0FFF78DFC80213046FFF761
:102E8000FDFBD3A0FFF786FC6A46012104A8FFF7EB
:102E900041F8694604A8FFF7CDF9012040036060BE
:102EA000A548406840047FD501208003606001216F
:102EB0000020FFF725FBC7A0FFF77AFC694604A8AE
:102EC000FFF72EFA6846808AC11FFF30F9390130BA
:102ED0008EB287B233B23AB203210620FEF70AFF60
:102EE000C7A0FFF765FC3146CEA0FFF761FC39466D
:102EF000D3A0FFF75DFC6A46012104A8FFF702F9A1
:102F00006846408A01460A390A308EB287B233B227
:102F10003AB201211020FEF7EDFE98A0FFF748FC21
:102F20003146CFA0FFF744FC3946D4A0FFF740FC60
:102F30006068800402D5D9A0FFF73AFC0120400365
:102F400060606A46012104A8FEF7E4FF0F21C9432F
:102F500068460182C127FF0104AA00213846FEF716
:102F6000A3FE6846468A1021018204AA0021384641
:102F7000FEF79AFE6846478AD3A0FFF719FC314650
:102F8000DAA0FFF715FC3946DFA0FFF711FC6068F7
:102F9000000402D5E4A0FFF70BFC0120C003606031
:102FA000401000E000E060606348406800041BD50A
:102FB0000120C003606001210020FFF7A1FAE5A015
:102FC000FFF7F6FB694604A8FFF7AAF96A46012154
:102FD00004A8FFF797F86A46012104A8FEF79AFFB4
:102FE000694604A8FFF726F96068A26807218902EC
:102FF000914308400ED0410502D50121890261604C
:10300000010502D50121C9026160C00402D5012079
:1030100000036060F9E1DA4800210160A068012145
:1030200049070843A060A0682043A060A068890009
:103030000843A06001210020FFF762FA142110204C
:10304000FEF750FE002802D00120FEF761FEFFF7D8
:10305000D3F9002802D00420FEF75AFEFEF746FE00
:10306000002802D00320FEF753FE14211020FEF7A3
:1030700039FE002802D00120FEF74AFE0021072079
:10308000FEF716FE002802D00220FEF741FEFEF7F2
:103090002DFE002802D00320FEF73AFE6420FEF742
:1030A000F3FD002802D00C20FEF732FEB548FEF7F3
:1030B00015FE002802D00D20FEF72AFE694604A85E
:1030C000FFF72EF96846808AC11FFF30F9390130B9
:1030D0008EB287B233B23AB203210620FEF70AFE5F
:1030E000A9A0FFF757FB31464EA0FFF761FB394619
:1030F00053A0FFF75DFB6A46012104A8FFF702F821
:103100006846408A01460A390A308EB287B233B225
:103110003AB201211020FEF7EDFD20A0FFF73AFBA7
:1031200031464FA0FFF744FB394654A0FFF740FB60
:103130006A4635E1FF0300000002002077616B65FD
:1031400075702062792074696D65720D0A00000047
:103150002D2D3E57616B6575702062792070726508
:103160007373757265206F7574206F66206C696D5E
:103170006974730D0A0000002020202050726573CE
:10318000737572652D7468726573686F6C647320F3
:1031900061646A75737465643A0D0A00202020200A
:1031A000204C504D502D4C6F772D4C696D69743A01
:1031B000200000000D0A20202020204C504D502DD2
:1031C000486967682D4C696D69743A2000000000F9
:1031D0000D0A00002D2D3E57616B657570206279D8
:1031E0002074656D7065726174757265206F757499
:1031F000206F66206C696D6974730D0A0000000011
:1032000054656D70657261747572652D7468726550
:1032100073686F6C64732061646A75737465643A73
:103220000D0A000020202020204C504D542D4C6FC2
:10323000772D4C696D69743A20307825780D0A0035
:1032400020202020204C504D542D486967682D4C7B
:10325000696D69743A20307825780D0A0000000005
:1032600020202020204C504D502D4C6F772D4C6944
:103270006D69743A20307825780D0A0020202020CE
:10328000204C504D502D486967682D4C696D69740C
:103290003A20307825780D0A0000000020202020F8
:1032A000204C504D502D50454E4420666C61672097
:1032B000776173207365742C20636C65617220697B
:1032C00074206E6F770D0A00416363656C657261EF
:1032D00074696F6E2D7468726573686F6C647320A7
:1032E00061646A75737465643A0D0A0020202020B9
:1032F000204C504D412D4C6F772D4C696D69743ABF
:1033000020307825780D0A0020202020204C504DB8
:10331000412D486967682D4C696D69743A20307891
:1033200025780D0A0000000020202020204C504D60
:10333000412D50454E4420666C61672077617320B3
:103340007365742C20636C656172206974206E6FE4
:10335000770D0A002D2D3E57616B657570206279DF
:1033600020616363656C65726174696F6E206F754F
:1033700074206F66206C696D6974730D0A0000001B
:1033800000000030B70B000020202020204C504DC2
:10339000542D4C6F772D4C696D69743A20000000F4
:1033A000012104A8FEF7B6FD0F21C943684601823A
:1033B000C127FF0104AA00213846FEF775FC6846C4
:1033C000468A1021018204AA00213846FEF76CFCCF
:1033D0006846478A5EA0FFF7DDF931466248FFF78D
:1033E000E7F9614839461C30FFF7E2F9694604A85D
:1033F000FEF720FFA068072189028843A060002013
:10340000C04360600F20FEF77BFC58492222086809
:103410006E46401C086069460A70491CFEF71AFA9D
:1034200002A903310F460020FEF714FA0320694673
:10343000C8730121684600F011F90421701C00F0E6
:103440000DF90121701D00F009F90221B01D00F0F5
:1034500005F9022102A800F001F902A801210230B9
:1034600000F0FCF80421384600F0F8F803A8012128
:10347000033000F0F3F83EA0FFF79AF90027F15D62
:103480003EA0FFF795F97F1C102FF8DB3DA0FFF75A
:103490008FF93DA0FFF78CF90AAA10216846FFF7C3
:1034A000F6FB0220401C2028FCDB36A0FFF780F949
:1034B0000126B60221680420814321602068304340
:1034C00020606D1CFEF730FC2020694608836420D4
:1034D000C8830AA808903148FF21026883141A4360
:1034E00002600A2206A8FEF747FC0746206804216E
:1034F000884320602068B0432060002F18D028A0A7
:10350000FFF756F9394629A0FFF752F91DA0FFF73A
:103510004FF9022DCEDB2168042081432160206811
:10352000B04320600020FEF7EFFB002013B0F0BD99
:103530001FA0FFF73DF96846C18B0029EBD00020A2
:1035400000E0401C8142FCDC0EA0FFF731F9E2E70D
:1035500020202020204C504D412D4C6F772D4C6960
:103560006D69743A20000000EC3200100000003059
:10357000526177206672616D653A2000253032789D
:10358000000000000D0A0000456E64636F6465640E
:10359000206672616D653A20000000000050004016
:1035A000493243206572726F723A2000257800001C
:1035B0004932432073756363657373200D0A2000DD
:1035C000F0B513B406460199FEF7D4FA04460D4649
:1035D00002460B4630460199FEF7BDFA06460198B1
:1035E0001B4B0F4600280CDA00223046FEF700FB8A
:1035F0000CD90022174B30463946FEF70DFB1DD281
:1036000014E000223046FEF7F3FA08D20022124BF3
:1036100020462946FEF79FFA04460D460EE000229A
:103620000C4B30463946FEF7F7FA07D800220A4B12
:1036300020462946FEF7EAF904460D46019A69003C
:103640004908D20FD2072046114303B0F0BD000055
:103650000000E0BF0000E03F0000F03F70B5CB0F7E
:1036600000225B185D1007E08B1A1B18203B845C5E
:10367000DE7F8654DC77521C9542F5DC70BD00007D
:10368000000000000000000000000000000000003A
:043690000000000036
:020000041000EA
:0453FC0000000000AD
:0400000510000829B6
:00000001FF
