:020000041000EA
:1008000042550000B20A0000000000000000000095
:1008100000000000000000000000000000000000D8
:1008200000480047290800100448854600F008F8F1
:10083000004800476D2D0010C046C0460002002051
:10084000064C0125064E05E0E36807CC2B430C3C23
:1008500098471034B442F7D3FFF7EAFF840800103A
:100860009408001002E008C8121F08C1002AFAD13B
:1008700070477047002001E001C1121F002AFBD120
:1008800070470000A4320010000200201C0000008D
:0408900064080010E8
:1017FC00630C000030B50B4601460020202201246A
:10180C0009E00D46D5409D4205D31D469540491B28
:10181C002546954040191546521E002DF1DC30BD71
:10182C0070B500242546002801DA01244042002925
:10183C0001DA01254942FFF7DDFFAC4200D04042FE
:10184C00002C00D0494270BD034603220870000AE8
:10185C00491C521EFAD51846704700000EB5C21727
:10186C00C10F5040CA0740180021054B029301924A
:10187C0000910A460B4600F071F803B000BD000061
:10188C00330400004A0009030123090B1B0519430B
:10189C00094B10B5520D9A4201DA002010BD064BCF
:1018AC0034339A4203DC9A1A00F03AF810BD03491B
:1018BC005118884010BD0000FF030000CDFBFFFF56
:1018CC00F0B51FB40646002082B0054640240191B5
:1018DC0000901BE0019922460F46304600F020F89C
:1018EC00049A059B801A994110D31046194622463A
:1018FC0000F0A0F9361A8F410197224601200021F1
:10190C00009F00F097F938184D4100902046641E56
:10191C000028DFDC019B00982946324607B0F0BD59
:10192C0010B5202A04DB0846203AD040002110BD17
:10193C000B46D340D0402024A21A914008431946AC
:10194C0010BD10B5002B08DA0024401C6141921820
:10195C005B411A4301D14008400010BDF0B51FB4E3
:10196C0082B005460C0003D0084600F0ABFE02E046
:10197C0000F0A8FE2030024600902146284600F0D8
:10198C0059F9049B059A04460F4618431143084322
:10199C0014D0184610431BD0009840210A1A184640
:1019AC000599FFF7BDFF05460E46009A0599049868
:1019BC0000F040F9084305D0012004E020463946E8
:1019CC0007B0F0BD0020C11705430E432C4337432D
:1019DC0000990E986305401A7905E40A00220C431D
:1019EC00FD0A0A3002D500200146E9E7010510196D
:1019FC0069410C9C0D9D00196941FFF7A2FFDFE7BF
:101A0C00F0B507460846584087B0C00F0490480010
:101A1C000E46590040084908BC1A884105D2384680
:101A2C0031461E4617460B460246580040081043E6
:101A3C004DD0300D039040055900400D490D0590D7
:101A4C00401A0290402873DA18030121000B090593
:101A5C000843019004980092002806D01146019A80
:101A6C0049420020904100910190029840210A1AAD
:101A7C000199009800F0DEF805460C466B4607CB42
:101A8C0000F0E8F8C0197141039A0E0D0023D71726
:101A9C0056401A467A40164344D0049A002A2DD058
:101AAC00029A012A039A15DC1205C01A91410126EB
:101ABC003605001C7141D20F059ED207009301928E
:101ACC0002962A462346FFF749FF07B0F0BD384679
:101ADC003146FAE71605234A0F46B218C01AB74129
:101AEC0001210905001C4F4100187F4111461818AF
:101AFC007941E20F10436D19644113E0E2076D0860
:101B0C0015436408C2071443039A01261205C01A30
:101B1C0091413605001C7141CE07400830434908FD
:101B2C00C01851412A462346FFF70BFFCDE7FFE7CC
:101B3C00049801224000C117121A00238B4104980B
:101B4C003146C417381AA141EEE730B40124E4073A
:101B5C00634030BC54E730B40124E407614030BC2E
:101B6C004EE700000000E0FFF8B5054648004008CD
:101B7C000C46284304D06000184A400D904201DD09
:101B8C002846F8BD15493539884210DC88420BDBF4
:101B9C00290D200308432903014305D0E00F104908
:101BAC00C00741180020F8BD00200146F8BD161AE8
:101BBC004020821B2846214600F03CF80746009145
:101BCC00284621463246FFF7ABFE3A46009BFFF70C
:101BDC00B8FE324600F02EF8F8BD000033040000C9
:101BEC000000F03F10B5002904DB0124E40740425B
:101BFC008C412146002B04DB1C460123DB0752429F
:101C0C00A3418B4200D1824210BD000010B50029C7
:101C1C0004DB0124E40740428C412146002B04DB09
:101C2C001C460123DB075242A341994200D190424A
:101C3C0010BD000010B5202A04DB0146203A91406B
:101C4C00002010BD914020239C1A0346E340194309
:101C5C00904010BD10B5202A06DBCB170846203A61
:101C6C001041C1170B4306E00B461341D040202412
:101C7C00A21A91400843194610BD000030B50D253D
:101C8C004124204730B50E254124204730B50C2582
:101C9C004124204730B50025004C2047010400109A
:101CAC0030B503254124204730B502254124204777
:101CBC0030B501254124204730B50025412420476B
:101CCC0030B551254124204730B5522541242047B9
:101CDC0030B55A254124204770470000F7B504461B
:101CEC0016460198002810D121463448FFF7DCFF36
:101CFC000546002D09D032A000F0D4FC29463DA0A9
:101D0C0000F0D0FC3CA000F0CDFC21469C20FFF75D
:101D1C00CFFF0546002D0AD038A000F0C3FC2946A1
:101D2C0034A000F0BFFC34A000F0BCFC12E0234651
:101D3C00042231218020FFF7A5FF0546042D09D987
:101D4C003DA000F0AFFC29462AA000F0ABFC2AA075
:101D5C0000F0A8FC22460021C120C001FFF78EFF35
:101D6C000546002D09D042A000F09CFC294621A07C
:101D7C0000F098FC20A000F095FC0020205EC1171C
:101D8C00090F091809113172090A717246A000F085
:101D9C0089FC0027E75FF817000FC019011147A055
:101DAC0000F080FC46A000F07DFC618811A000F0E2
:101DBC0079FC45A000F076FCFEBD000080800000A0
:101DCC0020202020202D3E4572726F722064757287
:101DDC00696E67204C69625F4D6561735F436F6D1F
:101DEC00705F54656D702C20737461747573203D35
:101DFC0020000000257800000D0A00002020202083
:101E0C00202D3E4572726F7220647572696E672068
:101E1C004C69625F4D6561735F5261775F416363CB
:101E2C00656C65726174696F6E2C20737461747566
:101E3C0073203D200000000020202020202D3E4556
:101E4C0072726F7220647572696E67204C69625F82
:101E5C00436F6D705F4175746F5F4163635F4F6675
:101E6C00667365742C20737461747573203D200047
:101E7C0020202020202D3E4572726F7220647572D6
:101E8C00696E67204C69625F436F6D705F4163637D
:101E9C00656C65726174696F6E2C207374617475F6
:101EAC0073203D200000000020202020416363654A
:101EBC006C65726174696F6E3A20000025640000D5
:101ECC0020672C2000000000204C53420D0A00001B
:101EDC00F7B504460E4621468A20FFF7EDFE05466F
:101EEC00002D09D023A000F0DDFB29462FA000F027
:101EFC00D9FB2FA000F0D6FB002E06D02146C12026
:101F0C00C001FFF7C3FE054605E021464120C00194
:101F1C00FFF7BCFE0546002D09D026A000F0C2FB41
:101F2C00294622A000F0BEFB21A000F0BBFB002044
:101F3C00205EC117090F091809030A0C02998A714E
:101F4C00120ACA7128A000F0ADFB0027E75FF81752
:101F5C00000FC019011128A000F0A4FB27A000F06D
:101F6C00A1FB618811A000F09DFB26A000F09AFB5C
:101F7C00FEBD000020202020202D3E4572726F7285
:101F8C0020647572696E67204C69625F4D65617380
:101F9C005F5261775F50726573737572652C207335
:101FAC007461747573203D200000000025780000DA
:101FBC000D0A000020202020202D3E4572726F72E9
:101FCC0020647572696E67204C69625F436F6D7037
:101FDC005F50726573737572652C207374617475C0
:101FEC0073203D20000000002020202050726573DB
:101FFC00737572653A20000025640000206B5061F7
:10200C002C200000204C53420D0A0000F0B587B084
:10201C0004460D4621468020FFF742FE0646002E60
:10202C0009D01DA000F03EFB314629A000F03AFB80
:10203C0028A000F037FB0027E75FF917490FC919F3
:10204C00C9106422514308462349FFF7E9FB01906C
:10205C00FFF704FC0391029001F0BAF8059104908B
:10206C00FFF710FCA8721DA000F01CFB0027E75F17
:10207C00F817400FC019C1101EA000F013FB1EA0D2
:10208C0000F010FB0421615E11A000F00BFB1CA002
:10209C0000F008FB07B0F0BD20202020202D3E458D
:1020AC0072726F7220647572696E67204C69625F20
:1020BC004D6561735F436F6D705F537570706C79B4
:1020CC00562C20737461747573203D200000000041
:1020DC00257800000D0A0000E40C000020202020D0
:1020EC00537570706C792D566F6C746167653A20FE
:1020FC000000000025640000206D562C200000001C
:10210C00204C53420D0A0000F8B504460D462146FA
:10211C008020FFF7C9FD0646002E09D014A000F060
:10212C00C1FA8021304600F01BFA1EA000F0BAFA6A
:10213C000020205EC117490E0918C91149B26971F6
:10214C0019A000F0AFFA0027E75FF817400EC0198E
:10215C00C1111AA000F0A6FA19A000F0A3FA0421EC
:10216C00615E19A000F09EFA18A000F09BFAF8BD71
:10217C0020202020202D3E4572726F7220647572D3
:10218C00696E67204C69625F4D6561735F436F6D6B
:10219C00705F54656D702C20737461747573203D81
:1021AC00200000000D0A00002020202054656D70D6
:1021BC00657261747572653A200000002564000038
:1021CC0020646567432C200025780000204C534286
:1021DC0020287363616C65642054656D70290D0A49
:1021EC0000000000F8B500265648C068C7B2564833
:1021FC000078C007C00F00287ED1544908600846FB
:10220C000068C90408435149086008460068072162
:10221C00C906884340184D49086008460068000903
:10222C000001001D086008460068F02188434749FA
:10223C000860084600680F2109048843012109043D
:10224C00401842490860084600680F210905884378
:10225C003E49086008464068FF21090288433B4913
:10226C00486008464068000A00027F304860084613
:10227C0040680002000AFF210906401833494860F3
:10228C0008464068FF210904884340182F494860DC
:10229C00084600682E4908432C490860B01E29499D
:1022AC00C860401088608904486026480069400076
:1022BC004008490040182349086100BF2148806844
:1022CC00C007C00F0028F9D0204800682049C94336
:1022DC0008401E49086008464068000C1D490D1A4C
:1022EC006E2D01DBB92D00DD0226002E22D12C46ED
:1022FC0019480078012800E01DE004D0022806D01F
:10230C0003280BD107E0E1208001444308E0E120E1
:10231C000002444304E01148444301E0022600BF9C
:10232C0000BF61080E4A88182146FFF763FA0D4971
:10233C00087000BF00BF0348C76000200349086055
:10234C003046F8BD00100040100200200050004044
:10235C0000010001FFFF00001402002000770100C3
:10236C0000A8CB1811020020012292071268520813
:10237C005200521C01239B071A601A461268022352
:10238C009A435B071A601A4612689B159A439B0581
:10239C001A601A4612685B159A43D2185B051A60CC
:1023AC002C4A10702C4A11702A4A1278D207D20F7C
:1023BC00002A23D1012904D0022909D0032916D1DE
:1023CC000DE0D022254B1A70254A264B1A8014E0BA
:1023DC003422224B1A70244A224B1A800DE01F2201
:1023EC001E4B1A70FF2278321E4B1A8005E0002219
:1023FC001A4B1A701B4B1A8000BF29E0154A127831
:10240C00D207D20F002A23D0012904D0022909D0E7
:10241C00032916D10DE0E222104B1A70104A114B11
:10242C001A8014E038220D4B1A700F4A0D4B1A808B
:10243C000DE02222094B1A70FF227832094B1A80C8
:10244C0005E00022054B1A70064B1A8000BF00BF36
:10245C00704700001002002014020020110200201E
:10246C00C40900001202002071020000F0B5002126
:10247C008C463649CA68D2B29646354B1A78D40780
:10248C00344A32D0344C14605D782C022C43314ADF
:10249C00546054685B881B041C43546095042B687F
:1024AC0056151C46B44333430326F643CE602C60CA
:1024BC0015680126360635431560156896153543A3
:1024CC0015600F268E6003256D0295600A69AF05B5
:1024DC003A430A611F4A95686D05AD0FFBD008257C
:1024EC00C6071E4E04D0336003E01B4CE41CCAE745
:1024FC00346040080F268E600126760296600E69C5
:10250C003E430E6196687605B60FFBD06D1E2D0608
:10251C002D0EE5D1114803600F2088600120400288
:10252C00906008693843086190684005800FFBD0C3
:10253C009068400501D501208446002010600320DE
:10254C00400290607046C8606046F0BD00100040CC
:10255C001002002000500040010004A800000040C0
:10256C00F0B505460F46002680203840802803D160
:10257C0042A000F085F80646002E01D03046F0BD92
:10258C00280F04463034392C01DDE01DC4B220463E
:10259C00FFF76CFF0646002E01D03046EFE728010E
:1025AC00000F04463034392C01DDE01DC4B2204646
:1025BC00FFF75CFF0646002E01D03046DFE728020D
:1025CC00000F04463034392C01DDE01DC4B2204626
:1025DC00FFF74CFF0646002E01D03046CFE728030C
:1025EC00000F04463034392C01DDE01DC4B2204606
:1025FC00FFF73CFF0646002E01D03046BFE728040B
:10260C00000F04463034392C01DDE01DC4B22046E5
:10261C00FFF72CFF0646002E01D03046AFE7280509
:10262C00000F04463034392C01DDE01DC4B22046C5
:10263C00FFF71CFF0646002E01D030469FE7280608
:10264C00000F04463034392C01DDE01DC4B22046A5
:10265C00FFF70CFF0646002E01D030468FE7280707
:10266C00000F04463034392C01DDE01DC4B2204685
:10267C00FFF7FCFE0646304681E70000307800008C
:10268C0030B50446002507E02078FFF7EFFE05463D
:10269C00641C002D00D002E020780028F4D100BF8B
:1026AC00284630BD0FB410B503A9044B044A029858
:1026BC0000F02EF810BC08BC04B01847912B001089
:1026CC00180200202021020C01D010211046020A11
:1026DC0001D010460839020901D01046091F8208A2
:1026EC0001D01046891E420801D0881E7047081A76
:1026FC00704730B47446641E2578641CAB4204D316
:10270C00635D5B00E31830BC18471D46F8E700001A
:10271C00FFB591B00F460546002606E025280AD0E5
:10272C00149A139990476D1C761C28780028F5D1C3
:10273C00304615B0F0BD002400940121F34A0294F8
:10274C0000E004436D1C2B780846203B9840104257
:10275C00F7D128782A280ED0022228780146303961
:10276C00092915D800990A235943303940181443C4
:10277C006D1C0090F1E701CF0090002805DA0120D4
:10278C0040030443009840420090022004436D1C17
:10279C0028782E2815D10420044368786D1C2A282B
:1027AC000AD101CF6D1C02900BE002990A22514311
:1027BC00303940186D1C02902878014630390929AF
:1027CC00F3D928786C2810D006DC4C281AD068284D
:1027DC000ED06A2817D104E0742813D07A2812D1AD
:1027EC0010E00120400504430CE00121090501E043
:1027FC00032109050C436978814203D101200005AE
:10280C0024186D1C6D1C28786E281ED00CDC6328D7
:10281C0031D004DC00288BD0582811D1B2E06428C8
:10282C007BD069280CD178E073282DD004DC6F287C
:10283C0070D0702804D1A7E075286CD078286BD0A4
:10284C00149A13999047761C62E06002400F02289C
:10285C0007D003280AD0042838680AD006603F1D28
:10286C0056E03868F11706604160F8E73868068072
:10287C00F5E70670F3E73878694608740020487469
:10288C0004A80390012003E0386803900020C043A3
:10289C003F1D61070FD5002101E00199491C029AE7
:1028AC000191914213DA8142F7DB019A0399895C19
:1028BC000029F2D10BE0002101E00199491C0191A2
:1028CC008142FADB019A0399895C0029F5D10199BF
:1028DC000098139A401A00902146149B00F03CF982
:1028EC0001998019461807E0039803990078491C50
:1028FC000391149A139990470198401E0190401C23
:10290C00F2D12146149B139A009800F015F9861900
:10291C006D1C0AE741E033E034E00A20002104900A
:10292C0005916002410F022905D001CFC2179446D0
:10293C00032905D007E0FF1DFF08FF0003CF06E0C9
:10294C0000B2C2179446042902D140B2C1178C467A
:10295C0000226146944506DA0A4600214042914124
:10296C008C462D2102E0210504D52B216A461176D7
:10297C00012103E0E10701D02021F7E7019155E0A7
:10298C000A200BE0102009E0102004900021042004
:10299C00044308200591029003E0082000210591D2
:1029AC0004906002410F022905D001CF0022944609
:1029BC00032906D006E0FF1DFF08FF0003CF8C465D
:1029CC0003E080B2042900D1C0B20021019121079B
:1029DC002CD529780391702906D0049A1021059BD7
:1029EC004A401A4305D00EE040216A461176012177
:1029FC0008E06146014306D030216A4611760399FE
:102A0C00517602210191049A0821059B4A401A43F0
:102A1C000CD16146014301D1610707D530216A46CB
:102A2C001176012101910299491E029129785829A8
:102A3C0004D037A103910FA90F910DE039A1F9E74B
:102A4C006146059B049AFEF73BFF039B8C469B5CFF
:102A5C000F9A521E0F92137061460143F0D10F98DA
:102A6C0007A9081A20300390600704D50120000440
:102A7C008443029801E0012002900399884201DD11
:102A8C00401A00E0002041180290019809180098A3
:102A9C00401A0090E00306D42146149B139A009828
:102AAC0000F05AF886190020049008E006A9085C8A
:102ABC00149A139990470498401C761C0490019921
:102ACC008842F3DBE0030CD52146149B139A009843
:102ADC0000F042F8861904E0149A302013999047BC
:102AEC00761C0299481E02900029F5DC08E00F982C
:102AFC000F990078491C0F91149A13999047761CE2
:102B0C000399481E03900029F1DCFAE6092801001C
:102B1C003031323334353637383961626364656647
:102B2C000000000030313233343536373839414209
:102B3C004344454600000000F8B5044600251E46F7
:102B4C001746880404D405E039462020B0476D1C94
:102B5C00641EF9D52846F8BDFFB50446002581B0A2
:102B6C001E46C80301D5302700E02027880404D571
:102B7C0005E038460399B0476D1C641EF9D528460C
:102B8C0005B0F0BD02467047F7B582B00D4616464B
:102B9C00E807C00F002802D0022005B0F0BD0120CC
:102BAC000005854201D30320F7E7002421E0AC4265
:102BBC0000D31FE00298005D0190019800F042F8EC
:102BCC0007466008305C009000980007000F0090EA
:102BDC000F2F03DD012000052018DEE7E007C00FF2
:102BEC00002803D0390100980818C7B26008375480
:102BFC00641CDCE700BF0020CFE7F8B505460E46A5
:102C0C00174600241AE06008B04200D317E0E00732
:102C1C00C00F002805D16008285C0007000F009049
:102C2C0007E06008285CF021084000900098001133
:102C3C000090009800F053F83855641CE3E700BF8F
:102C4C000020F8BDFEB50446AA212140084600F03C
:102C5C007BF8074666212140084600F075F8029083
:102C6C001E212140084600F06FF80190E0B200F000
:102C7C006BF800900E202040411020202040801046
:102C8C000D18F900029880000918019840000918E5
:102C9C0000980818C6B23300FFF72BFD10090D1A67
:102CAC000C1A0B1A111A0A1A141A171A0E1A13E004
:102CBC0012E011E010E00FE0012045400CE0022092
:102CCC00454009E00420454006E00820454003E06B
:102CDC0028461030C5B200BF00BF2846FEBD00B567
:102CEC0002460F2A01DD012000BD1300FFF701FD94
:102CFC000F090B0D0F11131517191B1D1F21232560
:102D0C00270000211DE0D2211BE0552119E087216D
:102D1C0017E0992115E04B2113E0CC2111E01E2185
:102D2C000FE0E1210DE033210BE0B42109E0662135
:102D3C0007E0782105E0AA2103E02D2101E0FF2125
:102D4C0000BF00BF0846CFE701460020002204E088
:102D5C00CB07DB0F58404910521C082AF8D3704798
:102D6C0070B592B0FE4800680068401CFC490968C8
:102D7C000860222108A80176F949096808680EA99B
:102D8C000131FEF761FD10A903310020FEF75CFD57
:102D9C00032110A8C1710120800740680002C00FF8
:102DAC0000287DD0012080078168EE488843FF21F0
:102DBC0001310843490140184900084349004018B3
:102DCC00E949086001208007406809680840E74924
:102DDC00086008460068C007C00F002802D0012018
:102DEC0081074860E1480068FE210840002818D09F
:102DFC00012080074068012080074068012080077F
:102E0C00406801208007406801208007406801204D
:102E1C0080074068012080074068FE200121890757
:102E2C004860D2480068FF2101310840002836D0A4
:102E3C0008468105486001210020FFF795FA14210E
:102E4C001020FEF73DFF0646002E02D00120FEF7B3
:102E5C0043FFFFF7C7F90546002D02D00420FEF70B
:102E6C003BFFFEF731FF0646002E02D00320FEF793
:102E7C0033FFBFA0FFF716FC0EA96846FFF744F915
:102E8C000EAA01216846FFF723F80EAA0121684615
:102E9C00FEF724FF0EA96846FFF7B8F800BF00E064
:102EAC0081E0B2480068012149020840002836D070
:102EBC0008464105486001210020FFF755FA14210E
:102ECC001020FEF7FDFE0646002E02D00120FEF774
:102EDC0003FFFFF787F90546002D02D00420FEF70B
:102EEC00FBFEFEF7F1FE0646002E02D00320FEF795
:102EFC00F3FE9FA0FFF7D6FB0EA96846FFF704F977
:102F0C000EAA01216846FEF7E3FF0EAA01216846CE
:102F1C00FEF7E4FE0EA96846FFF778F800BF934869
:102F2C000068012149030840002802D008464104EA
:102F3C0048608E480068012189030840002802D0AF
:102F4C00084601044860894800680121C90308400B
:102F5C00002802D00846C10348600120800744685D
:102F6C0001468A680721890291430C40002C19D034
:102F7C0000152040002803D0012080020105486084
:102F8C000120C0022040002803D00120C002C1044F
:102F9C004860012000032040002803D001200003DA
:102FAC00810448606CE0012080078068012149079A
:102FBC008843401849008860084680688843401858
:102FCC00886008468068400040084900401849085D
:102FDC008860002062490968086001208007406809
:102FEC000003C00F002848D014211020FEF768FE03
:102FFC00C4B2002C02D00120FEF76EFE0021072087
:10300C00FEF748FEC4B2002C02D00220FEF764FE8C
:10301C00FEF75AFEC4B2002C02D00320FEF75CFE71
:10302C0001208007006801218906884340180901A6
:10303C0008600846006804218843001D09070860E1
:10304C0008460068091588434018090508600846B9
:10305C00006809138843090308600846806849150D
:10306C008843490588600846806809148843090428
:10307C0088600020C043486002E00420FEF72CFE6C
:10308C0001210EA800F0F2F804210EA8013000F086
:10309C00EDF801210FA8013000F0E8F802210FA88B
:1030AC00023000F0E3F8022110A800F0DFF8012153
:1030BC0010A8023000F0DAF8042110A8033000F058
:1030CC00D5F8012111A8033000F0D0F82EA0FFF79D
:1030DC00E9FA002405E00EA8015D2EA0FFF7E2FA44
:1030EC00641C102CF7DB27A0FFF7DCFA2BA0FFF7F2
:1030FC00D9FA06AA10210EA8FFF77FFD002404E0E0
:10310C0006A9085DFFF7B2F9641C202CF8DB28A097
:10311C00FFF7C8FA02AA202106A8FFF735FD002404
:10312C0005E002A8015D1BA0FFF7BCFA641C102C83
:10313C00F7DB14A0FFF7B6FA07E02148006801217D
:10314C000903884340181E4908601E480069042181
:10315C00084080080028F0D00020FEF7B9FD33E0CD
:10316C0004020020FF030000080200200C020020D3
:10317C004D6561737572656D656E742072657375DE
:10318C006C74733A0D0A0000526177206672616D9F
:10319C00653A20002530327800000000456E6463EB
:1031AC006F646564206672616D653A2000000000F2
:1031BC004465636F646564206672616D653A2000D6
:1031CC000050004000700040002012B070BD0000A4
:1031DC00F0B513B406460199FEF7C6FC04460D463D
:1031EC0002460B4630460199FEF7AFFC06460198A5
:1031FC001B4B0F4600280CDA00223046FEF7F2FC7F
:10320C000CD90022174B30463946FEF7FFFC1DD275
:10321C0014E000223046FEF7E5FC08D20022124BE7
:10322C0020462946FEF791FC04460D460EE000228E
:10323C000C4B30463946FEF7E9FC07D800220A4B06
:10324C0020462946FEF7DCFB04460D46019A690030
:10325C004908D20FD2072046114303B0F0BD00003D
:10326C000000E0BF0000E03F0000F03F30B5034637
:10327C001A46002000BF08E0145C4D1E2D1A555D47
:10328C0015544D1E2D1A5455401CCD0F6D186D1034
:10329C008542F1DC30BD0000000C00000000003065
:1032AC000000000000000000000000000000000012
:0432BC00000000000E
:0453FC00ED1B0000A5
