:020000041000EA
:1008000042550000B20A0000000000000000000095
:1008100000000000000000000000000000000000D8
:020000041000EA
:1008200000480047290800100448854600F008F8F1
:1008300000480047B52E0010C046C0460002002008
:10084000064C0125064E05E0E36807CC2B430C3C23
:1008500098471034B442F7D3FFF7EAFF840800103A
:100860009408001002E008C8121F08C1002AFAD13B
:1008700070477047002001E001C1121F002AFBD120
:1008800070470000483900100002002014000000EA
:0408900064080010E8
:020000041000EA
:0417FC0000000000E9
:020000041000EA
:1018000030B50B46014600202022012409E00D4698
:10181000D5409D4205D31D469540491B2546954020
:1018200040191546521E002DF1DC30BD70B5002464
:101830002546002801DA01244042002901DA012569
:101840004942FFF7DDFFAC4200D04042002C00D0FF
:10185000494270BD034603220870000A491C521E0B
:10186000FAD51846704700000EB5C217C10F504098
:10187000CA0740180021054B0293019200910A46C5
:101880000B4600F071F803B000BD00003304000007
:101890004A0009030123090B1B051943094B10B525
:1018A000520D9A4201DA002010BD064B34339A42A1
:1018B00003DC9A1A00F03AF810BD03495118884029
:1018C00010BD0000FF030000CDFBFFFFF0B51FB40B
:1018D0000646002082B005464024019100901BE09E
:1018E000019922460F46304600F020F8049A059BE5
:1018F000801A994110D310461946224600F0A0F9EB
:10190000361A8F410197224601200021009F00F0E6
:1019100097F938184D4100902046641E0028DFDCFE
:10192000019B00982946324607B0F0BD10B5202A29
:1019300004DB0846203AD040002110BD0B46D340BE
:10194000D0402024A21A91400843194610BD10B57A
:10195000002B08DA0024401C614192185B411A43B5
:1019600001D14008400010BDF0B51FB482B005465B
:101970000C0003D0084600F0E1FF02E000F0DEFFBB
:101980002030024600902146284600F059F9049B79
:10199000059A04460F4618431143084314D01846CD
:1019A00010431BD0009840210A1A18460599FFF7EA
:1019B000BDFF05460E46009A0599049800F040F9CF
:1019C000084305D0012004E02046394607B0F0BDA9
:1019D0000020C11705430E432C43374300990E984E
:1019E0006305401A7905E40A00220C43FD0A0A3017
:1019F00002D500200146E9E70105101969410C9C58
:101A00000D9D00196941FFF7A2FFDFE7F0B507461A
:101A10000846584087B0C00F049048000E46590051
:101A200040084908BC1A884105D2384631461E464E
:101A300017460B4602465800400810434DD0300D63
:101A4000039040055900400D490D0590401A029041
:101A5000402873DA18030121000B0905084301909F
:101A600004980092002806D01146019A49420020AD
:101A7000904100910190029840210A1A0199009822
:101A800000F0DEF805460C466B4607CB00F0E8F8A0
:101A9000C0197141039A0E0D0023D71756401A46FC
:101AA0007A40164344D0049A002A2DD0029A012A83
:101AB000039A15DC1205C01A914101263605001C57
:101AC0007141D20F059ED2070093019202962A46D9
:101AD0002346FFF749FF07B0F0BD38463146FAE725
:101AE0001605234A0F46B218C01AB741012109054D
:101AF000001C4F4100187F41114618187941E20F30
:101B000010436D19644113E0E2076D081543640842
:101B1000C2071443039A01261205C01A91413605E3
:101B2000001C7141CE07400830434908C01851419C
:101B30002A462346FFF70BFFCDE7FFE70498012273
:101B40004000C117121A00238B4104983146C41774
:101B5000381AA141EEE730B40124E407634030BCF9
:101B600054E730B40124E407614030BC4EE7000084
:101B70000000E0FFF8B50546480040080C46284341
:101B800004D06000184A400D904201DD2846F8BD9F
:101B900015493539884210DC88420BDB290D2003BA
:101BA00008432903014305D0E00F1049C00741183D
:101BB0000020F8BD00200146F8BD161A4020821B07
:101BC0002846214600F03CF8074600912846214669
:101BD0003246FFF7ABFE3A46009BFFF7B8FE3246AF
:101BE00000F02EF8F8BD0000330400000000F03FC4
:101BF00010B5002904DB0124E40740428C41214652
:101C0000002B04DB1C460123DB075242A3418B421D
:101C100000D1824210BD000010B5002904DB012470
:101C2000E40740428C412146002B04DB1C46012383
:101C3000DB075242A341994200D1904210BD0000FF
:101C400010B5202A04DB0146203A9140002010BD47
:101C5000914020239C1A0346E3401943904010BD55
:101C600010B5202A06DBCB170846203A1041C117D1
:101C70000B4306E00B461341D0402024A21A9140AA
:101C80000843194610BD000030B5212541242047E6
:101C900030B50D254124204730B50E25412420477D
:101CA00030B50C254124204730B51125412420476B
:101CB00030B510254124204730B50025004C204781
:101CC0000104001030B503254124204730B502251A
:101CD0004124204730B501254124204730B5002557
:101CE0004124204730B554254124204730B55125A3
:101CF0004124204730B552254124204730B50225E4
:101D0000004C20470104001030B5592541242047DC
:101D100030B55A254124204710B50446214602A07B
:101D200000F0FCFD10BD00006572726F723A202554
:101D30006400000001208007006840084000401C4B
:101D40000121890708600846006889158843401802
:101D5000890508600846006889138843401889038C
:101D600008600846006889118843401889010860A6
:101D70000846006802218843801C4907086008461D
:101D800000684915884340184905086008460068FE
:101D90004913884340184903086008460068491100
:101DA000884340184901086008468068C911884383
:101DB0004018C90188607047F0B503465E488C46FC
:101DC0000168080A0002C90F06D01E245A4D0443B8
:101DD0002C60E124204328608E46584908688024FE
:101DE000204308605749564808609F204243081D19
:101DF0009E320260C60653481030066052480860A2
:101E00004D4810380568801405431888002802D012
:101E10009868007800E060464849091F0860002083
:101E2000464F01225880F021D8803F1D39603C6820
:101E3000E10604D5F02139600024102108433E4911
:101E400010390D603F4910310E6849060E4080215F
:101E500021403143EBD0002E01D0042156E0210770
:101E600023D400223968CC070BD09C88944206D931
:101E7000324C083C2468DE68B454521C01E0012452
:101E800020432D4C103C25602E4C10342468012634
:101E90007607344070260E402643E3D0DA80C2072E
:101EA00029D0264A083A126825E039688C070FD4F1
:101EB0001C88944202D99C68A45C00E064461F4ED2
:101EC000361F34601C88944201D202242043521CE5
:101ED000194C103C25601B4C1034246801267607F1
:101EE000344050260E402643DFD0184D521EAA42E1
:101EF00000D92A465A808A0601D520221043490675
:101F000001D540210843002C01D0082108430121BC
:101F10000C4A4907103211600D4A01211160094A2B
:101F2000002111607146002904D0034A1168090A92
:101F300009021160F0BD0000105000400870004020
:101F4000B40000B000580040B40100B0FFFF000032
:101F500008180040F7B504460E46002E10D1214661
:101F60003448FFF7B3FE0546002D09D032A000F03B
:101F7000D5FC29463DA000F0D1FC3DA000F0CEFCF0
:101F800021469C20FFF7A6FE0546002D0AD039A069
:101F900000F0C4FC294635A000F0C0FC34A000F0DD
:101FA000BDFC12E02346042231218020FFF774FE9D
:101FB0000546042D09D93EA000F0B0FC29462BA00F
:101FC00000F0ACFC2AA000F0A9FC22460021C120B0
:101FD000C001FFF75DFE0546002D09D042A000F0CC
:101FE0009DFC294621A000F099FC21A000F096FC60
:101FF0000020205EC117090F091809030A0C029975
:102000000A72120A4A7246A000F088FC0027E75FB5
:10201000F817000FC019011146A000F07FFC46A080
:1020200000F07CFC618811A000F078FC44A000F076
:1020300075FCFEBD8080000020202020202D3E4524
:1020400072726F7220647572696E67204C69625F8C
:102050004D6561735F436F6D705F54656D702C20CB
:10206000737461747573203D2000000025780000B2
:102070000D0A000020202020202D3E4572726F7234
:1020800020647572696E67204C69625F4D6561738B
:102090005F5261775F416363656C65726174696FFC
:1020A0006E2C20737461747573203D200000000055
:1020B00020202020202D3E4572726F7220647572A0
:1020C000696E67204C69625F436F6D705F41757424
:1020D0006F5F4163635F4F66667365742C20737432
:1020E00061747573203D200020202020202D3E4566
:1020F00072726F7220647572696E67204C69625FDC
:10210000436F6D705F416363656C65726174696F85
:102110006E2C20737461747573203D2000000000E4
:1021200020202020416363656C65726174696F6E65
:102130003A2000002564000020672C2000000000E9
:10214000204C53420D0A0000F7B504460E462146C6
:102150008A20FFF7C3FD0546002D09D023A000F01B
:10216000DDFB29462FA000F0D9FB2FA000F0D6FB05
:10217000002E06D02146C120C001FFF791FD054683
:1021800005E021464120C001FFF78AFD0546002DEC
:1021900009D026A000F0C2FB294622A000F0BEFB19
:1021A00021A000F0BBFB0020205EC117090F091819
:1021B00009030A0C02998A71120ACA7128A000F058
:1021C000ADFB0027E75FF817000FC019011128A029
:1021D00000F0A4FB27A000F0A1FB618811A000F093
:1021E0009DFB26A000F09AFBFEBD000020202020D1
:1021F000202D3E4572726F7220647572696E672081
:102200004C69625F4D6561735F5261775F507265C3
:1022100073737572652C20737461747573203D201F
:1022200000000000257800000D0A0000202020207A
:10223000202D3E4572726F7220647572696E672040
:102240004C69625F436F6D705F5072657373757236
:10225000652C20737461747573203D2000000000AC
:102260002020202050726573737572653A2000003B
:1022700025640000206B50612C200000204C53424C
:102280000D0A0000F0B587B004460D4621468020B7
:10229000FFF718FD0646002E09D01DA000F03EFBFA
:1022A000314629A000F03AFB28A000F037FB0027B8
:1022B000E75FF917490FC919C9106422514308464D
:1022C0002349FFF7B3FA0190FFF7CEFA039102908A
:1022D00001F0D6FA05910490FFF7DAFAA8721DA072
:1022E00000F01CFB0027E75FF817400FC019C11072
:1022F0001EA000F013FB1EA000F010FB0421615E85
:1023000011A000F00BFB1CA000F008FB07B0F0BD13
:1023100020202020202D3E4572726F72206475723D
:10232000696E67204C69625F4D6561735F436F6DD5
:10233000705F537570706C79562C2073746174756E
:1023400073203D2000000000257800000D0A0000E9
:10235000E40C000020202020537570706C792D56FD
:102360006F6C746167653A2000000000256400000E
:10237000206D562C20000000204C53420D0A000016
:10238000F8B504460D4621468020FFF79FFC06461F
:10239000002E09D014A000F0C1FA8021304600F0D0
:1023A0001BFA1EA000F0BAFA0020205EC117490EE9
:1023B0000918C91149B2697119A000F0AFFA0027D4
:1023C000E75FF817400EC019C1111AA000F0A6FA75
:1023D00019A000F0A3FA0421615E19A000F09EFA92
:1023E00018A000F09BFAF8BD20202020202D3E45AB
:1023F00072726F7220647572696E67204C69625FD9
:102400004D6561735F436F6D705F54656D702C2017
:10241000737461747573203D200000000D0A000084
:102420002020202054656D70657261747572653A64
:10243000200000002564000020646567432C200014
:1024400025780000204C534220287363616C65643A
:102450002054656D70290D0A00000000F8B50026B3
:102460005648C068C7B256480078C007C00F002859
:102470007ED15449086008460068C90408435149A0
:102480000860084600680721C906884340184D497E
:1024900008600846006800090001001D0860084641
:1024A0000068F021884347490860084600680F210A
:1024B000090488430121090440184249086008467C
:1024C00000680F21090588433E49086008464068B6
:1024D000FF21090288433B49486008464068000ADA
:1024E00000027F304860084640680002000AFF2171
:1024F000090640183349486008464068FF2109042E
:10250000884340182F494860084600682E49084310
:102510002C490860B01E2949C860401088608904B1
:102520004860264800694000400849004018234997
:10253000086100BF21488068C007C00F0028F9D09B
:10254000204800682049C94308401E4908600846E1
:102550004068000C1D490D1A6E2D01DBB92D00DD00
:102560000226002E22D12C4619480078012800E0CE
:102570001DE004D0022806D003280BD107E0E1209B
:102580008001444308E0E1200002444304E0114894
:10259000444301E0022600BF00BF61080E4A8818CC
:1025A0002146FFF72DF90D49087000BF00BF034811
:1025B000C7600020034908603046F8BD00100040A5
:1025C000080200200050004000010001FFFF000051
:1025D0000C0200200077010000A8CB18090200209F
:1025E00001229207126852085200521C01239B07D5
:1025F0001A601A46126808239A43DB061A601A46C4
:1026000012689B159A439B051A601A461268DB14E0
:102610009A43D218DB041A602C4A10702C4A1170AD
:102620002A4A1278D207D20F002A23D1012904D0D6
:10263000022909D0032916D10DE0D022254B1A70AA
:10264000254A264B1A8014E03422224B1A70244A61
:10265000224B1A800DE01F221E4B1A70FF22783287
:102660001E4B1A8005E000221A4B1A701B4B1A8071
:1026700000BF29E0154A1278D207D20F002A23D0D2
:10268000012904D0022909D0032916D10DE0E22244
:10269000104B1A70104A114B1A8014E038220D4B5F
:1026A0001A700F4A0D4B1A800DE02222094B1A7046
:1026B000FF227832094B1A8005E00022054B1A7080
:1026C000064B1A8000BF00BF7047000008020020C0
:1026D0000C02002009020020C40900000A020020A8
:1026E00071020000F0B500218C463649CA68D2B2AA
:1026F0009646354B1A78D407344A32D0344C14609D
:102700005D782C022C43314A546054685B881B046A
:102710001C43546095042B68D6141C46B4433343C1
:102720000326F643CE602C60156801263606354335
:10273000156015689615354315600F268E600325C4
:102740006D0295600A69AF053A430A611F4A9568B0
:102750006D05AD0FFBD00825C6071E4E04D03360B3
:1027600003E01B4CE41CCAE7346040080F268E606F
:102770000126760296600E693E430E6196687605E4
:10278000B60FFBD06D1E2D062D0EE5D1114803604E
:102790000F2088600120400290600869384308617A
:1027A00090684005800FFBD09068400501D501205E
:1027B0008446002010600320400290607046C8608C
:1027C0006046F0BD001000400802002000500040AC
:1027D000010004A800000040F0B505460F460026A1
:1027E00080203840802803D142A000F085F80646BA
:1027F000002E01D03046F0BD280F04463034392C6D
:1028000001DDE01DC4B22046FFF76CFF0646002E36
:1028100001D03046EFE72801000F04463034392C50
:1028200001DDE01DC4B22046FFF75CFF0646002E26
:1028300001D03046DFE72802000F04463034392C3F
:1028400001DDE01DC4B22046FFF74CFF0646002E16
:1028500001D03046CFE72803000F04463034392C2E
:1028600001DDE01DC4B22046FFF73CFF0646002E06
:1028700001D03046BFE72804000F04463034392C1D
:1028800001DDE01DC4B22046FFF72CFF0646002EF6
:1028900001D03046AFE72805000F04463034392C0C
:1028A00001DDE01DC4B22046FFF71CFF0646002EE6
:1028B00001D030469FE72806000F04463034392CFB
:1028C00001DDE01DC4B22046FFF70CFF0646002ED6
:1028D00001D030468FE72807000F04463034392CEA
:1028E00001DDE01DC4B22046FFF7FCFE064630467F
:1028F00081E700003078000030B50446002507E08D
:102900002078FFF7EFFE0546641C002D00D002E0A2
:1029100020780028F4D100BF284630BD0FB410B590
:1029200003A9044B044A029800F02EF810BC08BC1E
:1029300004B01847FD2D0010100200202021020CC9
:1029400001D010211046020A01D0104608390209B0
:1029500001D01046091F820801D01046891E420886
:1029600001D0881E7047081A704730B47446641E40
:102970002578641CAB4204D3635D5B00E31830BC74
:1029800018471D46F8E70000FFB591B00F46054611
:10299000002606E025280AD0149A139990476D1C4A
:1029A000761C28780028F5D1304615B0F0BD0024FB
:1029B00000940121F34A029400E004436D1C2B783B
:1029C0000846203B98401042F7D128782A280ED09C
:1029D0000222287801463039092915D800990A239E
:1029E00059433039401814436D1C0090F1E701CF72
:1029F0000090002805DA012040030443009840427B
:102A00000090022004436D1C28782E2815D1042044
:102A1000044368786D1C2A280AD101CF6D1C0290EE
:102A20000BE002990A225143303940186D1C029084
:102A30002878014630390929F3D928786C2810D034
:102A400006DC4C281AD068280ED06A2817D104E07A
:102A5000742813D07A2812D110E0012040050443D5
:102A60000CE00121090501E0032109050C43697807
:102A7000814203D10120000524186D1C6D1C2878AB
:102A80006E281ED00CDC632831D004DC00288BD0EB
:102A9000582811D1B2E064287BD069280CD178E0A5
:102AA00073282DD004DC6F2870D0702804D1A7E0E3
:102AB00075286CD078286BD0149A13999047761C9F
:102AC00062E06002400F022807D003280AD00428E1
:102AD00038680AD006603F1D56E03868F117066076
:102AE0004160F8E738680680F5E70670F3E7387864
:102AF000694608740020487404A80390012003E08C
:102B0000386803900020C0433F1D61070FD50021A6
:102B100001E00199491C029A0191914213DA814224
:102B2000F7DB019A0399895C0029F2D10BE00021BF
:102B300001E00199491C01918142FADB019A039954
:102B4000895C0029F5D101990098139A401A0090E8
:102B50002146149B00F03CF901998019461807E0C2
:102B6000039803990078491C0391149A139990478C
:102B70000198401E0190401CF2D12146149B139AEB
:102B8000009800F015F986196D1C0AE741E033E062
:102B900034E00A200021049005916002410F0229CF
:102BA00005D001CFC2179446032905D007E0FF1DC9
:102BB000FF08FF0003CF06E000B2C21794460429C5
:102BC00002D140B2C1178C4600226146944506DA14
:102BD0000A460021404291418C462D2102E0210508
:102BE00004D52B216A461176012103E0E10701D0CB
:102BF0002021F7E7019155E00A200BE0102009E0C1
:102C00001020049000210420044308200591029024
:102C100003E008200021059104906002410F022981
:102C200005D001CF00229446032906D006E0FF1DFF
:102C3000FF08FF0003CF8C4603E080B2042900D1D7
:102C4000C0B20021019121072CD529780391702968
:102C500006D0049A1021059B4A401A4305D00EE085
:102C600040216A461176012108E06146014306D001
:102C700030216A4611760399517602210191049A16
:102C80000821059B4A401A430CD16146014301D1FA
:102C9000610707D530216A46117601210191029919
:102CA000491E02912978582904D037A103910FA910
:102CB0000F910DE039A1F9E76146059B049AFEF7F3
:102CC00005FE039B8C469B5C0F9A521E0F9213705D
:102CD00061460143F0D10F9807A9081A20300390EC
:102CE000600704D5012000048443029801E001201C
:102CF00002900399884201DD401A00E0002041184B
:102D00000290019809180098401A0090E00306D438
:102D10002146149B139A009800F05AF88619002057
:102D2000049008E006A9085C149A13999047049847
:102D3000401C761C049001998842F3DBE0030CD51B
:102D40002146149B139A009800F042F8861904E07B
:102D5000149A302013999047761C0299481E0290CD
:102D60000029F5DC08E00F980F990078491C0F91B5
:102D7000149A13999047761C0399481E03900029D2
:102D8000F1DCFAE6092801003031323334353637C8
:102D900038396162636465660000000030313233A7
:102DA0003435363738394142434445460000000047
:102DB000F8B5044600251E461746880404D405E0ED
:102DC00039462020B0476D1C641EF9D52846F8BD51
:102DD000FFB50446002581B01E46C80301D5302743
:102DE00000E02027880404D505E038460399B04761
:102DF0006D1C641EF9D5284605B0F0BD024670472B
:102E0000F8B505460E46174600241AE06008B042A1
:102E100000D317E0E007C00F002805D16008285C48
:102E20000007000F009007E06008285CF0210840D0
:102E30000090009800110090009800F006F83855B6
:102E4000641CE3E700BF0020F8BD00B502460F2A6E
:102E500001DD012000BD1300FFF787FD0F090B0DF9
:102E60000F11131517191B1D1F21232527000021E2
:102E70001DE0D2211BE0552119E0872117E099219F
:102E800015E04B2113E0CC2111E01E210FE0E121E0
:102E90000DE033210BE0B42109E0662107E0782141
:102EA00005E0AA2103E02D2101E0FF2100BF00BFC2
:102EB0000846CFE7F0B595B00020149001208007B8
:102EC000006804218843090708600846006809155E
:102ED000884309050860084640680002C00F0028C2
:102EE0007ED008468168FD488843FF2101310843B0
:102EF000490140184900084349004018F849086052
:102F000001208007406809680840F64908600846C3
:102F10000068C007C00F002802D001208107486068
:102F2000F0480068FE210840002818D001208007E2
:102F30004068012080074068012080074068012028
:102F400080074068012080074068012080074068B2
:102F5000012080074068FE20012189074860E14880
:102F60000068FF2101310840002856D0084681053D
:102F7000486001210020FFF733FB14211020FEF7E9
:102F8000B5FE0646002E02D00120FEF7C5FEFFF773
:102F900065FA0546002D02D00420FEF7BDFEFEF7BF
:102FA000A9FE0646002E02D00320FEF7B5FE10A9AA
:102FB0000EA8FFF7E5F90120800740684004C00F24
:102FC000002803D0012080030104486010AA0121D9
:102FD0000EA8FFF7B9F8012080074068800400E0E0
:102FE0003BE1C00F002803D00120400341044860AA
:102FF00010AA01210EA8FEF7ADFF0120800740684E
:103000000004C00F002803D00120C003C1034860A2
:1030100010A90EA8FFF736F900BFB24800680121D9
:1030200049020840002802D0084641054860AD48E2
:10303000006801214903084000281FD008464104C8
:10304000486001210020FFF7CBFAA7A0FFF766FC3C
:1030500010A90EA8FFF794F910AA01210EA8FFF7F6
:1030600073F810AA01210EA8FEF774FF10A90EA88C
:10307000FFF708F9012040034104486099480068BF
:1030800001218903084000287ED0084601044860D9
:1030900001210020FFF7A4FA9DA0FFF73FFC10A933
:1030A0000EA8FFF76DF96846808F803885B26846B4
:1030B000808F803086B22BB232B279210A20FEF79F
:1030C0001DFE9EA0FFF72AFC2946A5A0FFF726FCBF
:1030D0003146AAA0FFF722FC10AA01210EA8FFF793
:1030E00033F85F210901684601870EA9C120C0019C
:1030F000FEF7DEFD6846458F6921090101870EA9AB
:10310000C120C001FEF7D4FD6846468F2BB232B213
:1031100077211020FEF7F2FDA0A0FFF7FFFB294664
:10312000A6A0FFF7FBFB3146ABA0FFF7F7FB0120A2
:10313000800740688004C00F002802D0AEA0FFF7CF
:10314000EDFB012040034104486010AA01210EA8B4
:10315000FEF700FF0F21C943684601870EAA002130
:10316000C120C001FEF7A0FD6846458F10210187F0
:103170000EAA0021C120C001FEF796FD6846468FC9
:103180002BB232B2782100E01EE04920FEF7B6FDF6
:10319000A4A0FFF7C3FB2946ABA0FFF7BFFB314656
:1031A000B0A0FFF7BBFB0120800740680004C00F00
:1031B000002802D0B3A0FFF7B1FB0120C003C10378
:1031C00048604010486000BF464800680121C903BC
:1031D000084000281BD00846C10348600121002098
:1031E000FFF7FEF9B2A0FFF799FB10A90EA8FFF7B1
:1031F000C7F810AA01210EA8FEF7A6FF10AA012108
:103200000EA8FEF7A7FE10A90EA8FFF73BF80120B5
:103210008007446801468A680721890291430C406F
:10322000002C19D000152040002803D00120800276
:10323000010548600120C0022040002803D0012081
:10324000C002C1044860012000032040002803D0D0
:103250000120000381044860F4E100209F490860D8
:1032600001208007806801214907884340184900F0
:1032700088600846806888434018886008468068EF
:10328000400040084900401849088860012100209A
:10329000FFF7A6F914211020FEF728FD0446002CA4
:1032A00002D00120FEF738FDFFF7D8F80746002FBF
:1032B00002D00420FEF730FDFEF71CFD0446002C72
:1032C00002D00320FEF728FD14211020FEF70EFD8A
:1032D0000446002C01D0012002E103E1FF030000BD
:1032E00000020020040200202D2D3E57616B657501
:1032F00070206279207072657373757265206F75C6
:1033000074206F66206C696D6974730D0A0000008B
:103310002D2D3E57616B6575702062792074656D47
:103320007065726174757265206F7574206F6620A8
:103330006C696D6974730D0A0000000054656D704E
:10334000657261747572652D7468726573686F6CEF
:1033500064732061646A75737465643A0D0A0000D1
:1033600020202020204C504D542D4C6F772D4C693F
:103370006D69743A20307825780D0A0020202020CD
:10338000204C504D542D486967682D4C696D697407
:103390003A20307825780D0A0000000050726573DD
:1033A000737572652D7468726573686F6C647320D1
:1033B00061646A75737465643A0D0A0020202020E8
:1033C000204C504D502D4C6F772D4C696D69743ADF
:1033D00020307825780D0A0020202020204C504DE8
:1033E000502D486967682D4C696D69743A203078B2
:1033F00025780D0A0000000020202020204C504D90
:10340000502D50454E4420666C61672077617320D3
:103410007365742C20636C656172206974206E6F13
:10342000770D0A00416363656C65726174696F6E44
:103430002D7468726573686F6C64732061646A755B
:10344000737465643A0D0A0020202020204C504DF2
:10345000412D4C6F772D4C696D69743A2030782579
:10346000780D0A0020202020204C504D412D486925
:1034700067682D4C696D69743A20307825780D0A9B
:103480000000000020202020204C504D412D5045B0
:103490004E4420666C616720776173207365742CDD
:1034A00020636C656172206974206E6F770D0A006D
:1034B0002D2D3E57616B65757020627920616363C5
:1034C000656C65726174696F6E206F7574206F66CC
:1034D000206C696D6974730D0A00000000000030F3
:1034E000FEF71AFC00210720FEF7E6FB0446002C3D
:1034F00002D00220FEF710FCFEF7FCFB0446002C75
:1035000002D00320FEF708FC6420FEF7BDFB044652
:10351000002C02D00C20FEF7FFFBAF48FEF7E2FBC9
:103520000446002C02D00D20FEF7F6FB10A90EA8D1
:10353000FEF726FF6846808F803885B26846808F08
:10354000803086B22BB232B279210A20FEF7D6FB48
:10355000A2A0FFF7D1F92946A648FFF7DFF93146C7
:10356000A4481C30FFF7DAF910AA01210EA8FEF7D3
:10357000EBFD5F210901684601870EA9C120C0014A
:10358000FEF796FB6846458F6921090101870EA960
:10359000C120C001FEF78CFB6846468F2BB232B2C9
:1035A00077211020FEF7AAFB93A0FFF7A5F9294683
:1035B00090485C30FFF7B2F931468E487830FFF71B
:1035C000ADF910AA01210EA8FEF7C4FC0F21C943D2
:1035D000684601870EAA0021C120C001FEF764FBE6
:1035E0006846458F102101870EAA0021C120C00125
:1035F000FEF75AFB6846468F2BB232B2782149203B
:10360000FEF77CFB82A0FFF777F929467948E8307E
:10361000FFF784F931468448FFF780F910A90EA816
:10362000FEF730FE01208007806807218902884369
:103630000121890788600020C04348600F20FEF701
:1036400063FB00BF79480068401C7849086022216C
:1036500010A80170411C75480068FEF7FBF812A91C
:1036600003310020FEF7F6F8032110A8C1730121F1
:1036700000F054F9042110A8013000F04FF90121A5
:1036800011A8013000F04AF9022111A8023000F01F
:1036900045F9022112A800F041F9012112A80230D7
:1036A00000F03CF9042112A8033000F037F90121A1
:1036B00013A8033000F032F95DA0FFF72FF90024C2
:1036C00005E010A8015D5DA0FFF728F9641C102C2F
:1036D000F7DB5CA0FFF722F95BA0FFF71FF906AA52
:1036E000102110A8FFF78CFB002000E0401C2028D0
:1036F000FCDB54A0FFF712F900BF1498401C149093
:1037000001208007006804218843090708600846F3
:10371000006809158843401809050860FEF70AFB90
:103720002021684601816421C18106A80490FF2000
:103730000190002000904948006801210903884356
:103740004018464908600A2202A80199FEF734FB96
:103750000090012080070068042188430907086061
:103760000846006809158843090508600098002884
:1037700011D13BA0FFF7D2F86846C089002818D0C5
:10378000002000E0401C6946C9898142FADC2DA076
:10379000FFF7C4F80DE036A0FFF7C0F837A0009996
:1037A000FFF7BCF827A0FFF7B9F81498022800DA51
:1037B000A3E7012080070068042188430907086007
:1037C0000846006809158843090508600020FEF7CF
:1037D0009FFA002015B0F0BDB70B0000202020207C
:1037E000204C504D542D4C6F772D4C696D69743AB7
:1037F000200000006033001020202020204C504D7D
:10380000502D4C6F772D4C696D69743A2000000083
:1038100020202020204C504D412D4C6F772D4C699D
:103820006D69743A2000000064340010000000301C
:10383000526177206672616D653A200025303278DA
:10384000000000000D0A0000456E64636F6465644B
:10385000206672616D653A20000000000050004053
:103860004932432073756363657373200D0A20002A
:10387000493243206572726F723A20002578000049
:10388000F0B513B406460199FEF774F904460D46E7
:1038900002460B4630460199FEF75DF9064601984F
:1038A0001B4B0F4600280CDA00223046FEF7A0F929
:1038B0000CD90022174B30463946FEF7ADF91DD220
:1038C00014E000223046FEF793F908D20022124B92
:1038D00020462946FEF73FF904460D460EE0002239
:1038E0000C4B30463946FEF797F907D800220A4BB1
:1038F00020462946FEF78AF804460D46019A6900DB
:103900004908D20FD2072046114303B0F0BD000092
:103910000000E0BF0000E03F0000F03F30B503468C
:103920001A46002000BF08E0145C4D1E2D1A555D9C
:1039300015544D1E2D1A5455401CCD0F6D186D1089
:103940008542F1DC30BD00000000000000000000F6
:0C3950000000000000000000000000006B
:020000041000EA
:0453FC0000000000AD
:0400000510000829B6
:00000001FF
