:020000041000EA
:1008000042550000B20A0000000000000000000095
:1008100000000000000000000000000000000000D8
:020000041000EA
:1008200000480047290800100448854600F008F8F1
:1008300000480047312B0010C046C046000200208F
:10084000064C0125064E05E0E36807CC2B430C3C23
:1008500098471034B442F7D3FFF7EAFF840800103A
:100860009408001002E008C8121F08C1002AFAD13B
:1008700070477047002001E001C1121F002AFBD120
:10088000704700008C3000100002002014000000AF
:0408900064080010E8
:020000041000EA
:0417FC0000000000E9
:020000041000EA
:1018000030B50B46014600202022012409E00D4698
:10181000D5409D4205D31D469540491B2546954020
:1018200040191546521E002DF1DC30BD70B5002464
:101830002546002801DA01244042002901DA012569
:101840004942FFF7DDFFAC4200D04042002C00D0FF
:10185000494270BD034603220870000A491C521E0B
:10186000FAD51846704700000EB5C217C10F504098
:10187000CA0740180021054B0293019200910A46C5
:101880000B4600F041F803B000BD00003304000037
:101890004A0009030123090B1B051943094B10B525
:1018A000520D9A4201DA002010BD064B34339A42A1
:1018B00003DC9A1A00F00AF810BD03495118884059
:1018C00010BD0000FF030000CDFBFFFF10B5202A74
:1018D00004DB0846203AD040002110BD0B46D3401F
:1018E000D0402024A21A91400843194610BD10B5DB
:1018F000002B08DA0024401C614192185B411A4316
:1019000001D14008400010BDF0B51FB482B00546BB
:101910000C0003D0084600F0DBFF02E000F0D8FF27
:101920002030024600902146284600F059F9049BD9
:10193000059A04460F4618431143084314D018462D
:1019400010431BD0009840210A1A18460599FFF74A
:10195000BDFF05460E46009A0599049800F040F92F
:10196000084305D0012004E02046394607B0F0BD09
:101970000020C11705430E432C43374300990E98AE
:101980006305401A7905E40A00220C43FD0A0A3077
:1019900002D500200146E9E70105101969410C9CB8
:1019A0000D9D00196941FFF7A2FFDFE7F0B507467B
:1019B0000846584087B0C00F049048000E465900B2
:1019C00040084908BC1A884105D2384631461E46AF
:1019D00017460B4602465800400810434DD0300DC4
:1019E000039040055900400D490D0590401A0290A2
:1019F000402873DA18030121000B09050843019000
:101A000004980092002806D01146019A494200200D
:101A1000904100910190029840210A1A0199009882
:101A200000F0DEF805460C466B4607CB00F0E8F800
:101A3000C0197141039A0E0D0023D71756401A465C
:101A40007A40164344D0049A002A2DD0029A012AE3
:101A5000039A15DC1205C01A914101263605001CB7
:101A60007141D20F059ED2070093019202962A4639
:101A70002346FFF749FF07B0F0BD38463146FAE785
:101A80001605234A0F46B218C01AB74101210905AD
:101A9000001C4F4100187F41114618187941E20F90
:101AA00010436D19644113E0E2076D0815436408A3
:101AB000C2071443039A01261205C01A9141360544
:101AC000001C7141CE07400830434908C0185141FD
:101AD0002A462346FFF70BFFCDE7FFE704980122D4
:101AE0004000C117121A00238B4104983146C417D5
:101AF000381AA141EEE730B40124E407634030BC5A
:101B000054E730B40124E407614030BC4EE70000E4
:101B10000000E0FFF8B50546480040080C462843A1
:101B200004D06000184A400D904201DD2846F8BDFF
:101B300015493539884210DC88420BDB290D20031A
:101B400008432903014305D0E00F1049C00741189D
:101B50000020F8BD00200146F8BD161A4020821B67
:101B60002846214600F03CF80746009128462146C9
:101B70003246FFF7ABFE3A46009BFFF7B8FE32460F
:101B800000F02EF8F8BD0000330400000000F03F24
:101B900010B5002904DB0124E40740428C412146B2
:101BA000002B04DB1C460123DB075242A3418B427E
:101BB00000D1824210BD000010B5002904DB0124D1
:101BC000E40740428C412146002B04DB1C460123E4
:101BD000DB075242A341994200D1904210BD000060
:101BE00010B5202A04DB0146203A9140002010BDA8
:101BF000914020239C1A0346E3401943904010BDB6
:101C000010B5202A06DBCB170846203A1041C11731
:101C10000B4306E00B461341D0402024A21A91400A
:101C20000843194610BD000030B521254124204746
:101C300030B50D254124204730B50E2541242047DD
:101C400030B50C254124204730B50025004C2047F5
:101C50000104001030B50125004C2047010400109C
:101C600030B503254124204730B5022541242047C3
:101C700030B501254124204730B5002541242047B7
:101C800030B554254124204730B5552541242047FF
:101C900030B551254124204730B5522541242047F5
:101CA00030B55A254124204701460DE0084A00E09E
:101CB000521E002AFCDC074A126801231B039A43C8
:101CC000D218044B1A60491E0029EFDC704700004F
:101CD000B80B00000050004070470000F8B5044603
:101CE0000F4601208007006840084000401C012189
:101CF00089070860084600688915884389050860D7
:101D000000210120FFF7C0FF0546002D09D01AA0D1
:101D100000F0BCFD8021284600F028FD0D2000F0D9
:101D200027FC21468020FFF795FF0546002D09D0AE
:101D30001EA000F0ABFD8021284600F017FD0D200D
:101D400000F016FC00210846FFF79EFF26A000F0D9
:101D50009DFD0026A65FF117490F8919C81000F0F4
:101D600081FC28A000F092FD6088802100F0AEFC8C
:101D700026A000F08BFDF8BD20202020202D3E4520
:101D800072726F7220647572696E67204C69625F4F
:101D9000536572765F50696E5F436F6E6669672C3C
:101DA00020737461747573203D2000002020202072
:101DB000202D3E4572726F7220647572696E6720C5
:101DC0004C69625F4D6561735F436F6D705F416920
:101DD0006E5F566F6C746167652C207374617475E7
:101DE00073203D200000000020202020566F6C74DE
:101DF0006167652061742041494E20285050302988
:101E00003A200000206D562C20000000204C534248
:101E10000D0A0000F7B504460E46002E10D12146EB
:101E20003348FFF721FF0546002D09D031A000F00F
:101E30002DFD8021284600F099FC0D2000F098FB34
:101E400021469C20FFF714FF0546002D0AD036A03E
:101E500000F01CFD8021284600F088FC0D2000F0D9
:101E600087FB12E02346042231218020FFF7E4FEA5
:101E70000546042D09D93BA000F008FD8021284625
:101E800000F074FC0D2000F073FB22460021C120FD
:101E9000C001FFF7CDFE0546002D09D03FA000F0A0
:101EA000F5FC8021284600F061FC0D2000F060FB6D
:101EB0000020205EC117090F09180911029A11723A
:101EC000090A517243A000F0E1FC0027E75FF9170F
:101ED000090FC919081100F0C5FB43A000F0D6FC9A
:101EE000618843A000F0E4FC42A000F0CFFCFEBDFE
:101EF0008080000020202020202D3E4572726F72CD
:101F000020647572696E67204C69625F4D6561730C
:101F10005F436F6D705F54656D702C2073746174D6
:101F20007573203D2000000020202020202D3E45FC
:101F300072726F7220647572696E67204C69625F9D
:101F40004D6561735F5261775F416363656C657274
:101F50006174696F6E2C20737461747573203D20F9
:101F60000000000020202020202D3E4572726F725C
:101F700020647572696E67204C69625F436F6D7093
:101F80005F4175746F5F4163635F4F66667365742D
:101F90002C20737461747573203D20002020202054
:101FA000202D3E4572726F7220647572696E6720D3
:101FB0004C69625F436F6D705F416363656C65720E
:101FC0006174696F6E2C20737461747573203D2089
:101FD0000000000020202020416363656C65726171
:101FE00074696F6E3A20000020672C20000000000A
:101FF00025640000204C53420D000000F7B5044654
:102000000E4621468A20FFF737FE0546002D09D0EF
:1020100022A000F03BFC8021284600F0A7FB0D2009
:1020200000F0A6FA002E06D02146C120C001FFF71D
:1020300007FE054605E021464120C001FFF700FEEE
:102040000546002D09D023A000F020FC8021284661
:1020500000F08CFB0D2000F08BFA0020205EC117F1
:10206000090F091809030A0C02998A71120ACA7128
:1020700025A000F00BFC0027E75FF917090FC9192D
:10208000081100F0EFFA24A000F000FC6088802125
:1020900000F01CFB22A000F0F9FBFEBD2020202058
:1020A000202D3E4572726F7220647572696E6720D2
:1020B0004C69625F4D6561735F5261775F50726515
:1020C00073737572652C20737461747573203D2071
:1020D0000000000020202020202D3E4572726F72EB
:1020E00020647572696E67204C69625F436F6D7022
:1020F0005F50726573737572652C207374617475AB
:1021000073203D20000000002020202050726573C5
:10211000737572653A200000206B50612C2000001E
:10212000204C53420D0A0000F0B587B004460D461E
:1021300021468020FFF794FD0646002E09D01DA001
:1021400000F0A4FB8021304600F010FB0D2000F0D1
:102150000FFA0027E75FF917490FC919C910642260
:10216000514308462149FFF761FB0190FFF77CFBD3
:102170000391029000F026FF05910490FFF788FB81
:10218000A8721BA000F082FB0027E75FF917490F38
:10219000C919C81000F066FA1BA000F077FBA188EF
:1021A00088B2802100F092FA19A000F06FFB07B00E
:1021B000F0BD000020202020202D3E4572726F725D
:1021C00020647572696E67204C69625F4D6561734A
:1021D0005F436F6D705F537570706C79562C207310
:1021E0007461747573203D2000000000E40C000051
:1021F00020202020537570706C792D566F6C74619F
:1022000067653A2000000000206D562C2000000079
:10221000204C53420D0A0000F8B504460D462146F5
:102220008020FFF721FD0646002E09D014A000F003
:102230002DFB8021304600F099FA0D2000F098F92E
:102240000020205EC117490E0918C91149B26971F1
:1022500018A000F01BFB0027E75FF917490EC9190A
:10226000C81100F0FFF918A000F010FBA18888B297
:10227000802100F02BFA16A000F008FBF8BD00004A
:1022800020202020202D3E4572726F7220647572CE
:10229000696E67204C69625F4D6561735F436F6D66
:1022A000705F54656D702C20737461747573203D7C
:1022B000200000002020202054656D70657261743C
:1022C0007572653A2000000020646567432C200089
:1022D000204C534220287363616C65642054656D03
:1022E00070290D0A00000000F8B500265648C068A5
:1022F000C7B256480078C007C00F00287ED15449A5
:10230000086008460068C904084351490860084647
:1023100000680721C906884340184D4908600846EF
:10232000006800090001001D086008460068F021EF
:10233000884347490860084600680F21090488431C
:1023400001210904401842490860084600680F212D
:10235000090588433E49086008464068FF21090294
:1023600088433B49486008464068000A00027F30C5
:102370004860084640680002000AFF21090640182C
:102380003349486008464068FF21090488434018E3
:102390002F494860084600682E4908432C490860C8
:1023A000B01E2949C86040108860890448602648EA
:1023B000006940004008490040182349086100BFF7
:1023C00021488068C007C00F0028F9D02048006865
:1023D0002049C94308401E49086008464068000C6F
:1023E0001D490D1A6E2D01DBB92D00DD0226002ED0
:1023F00022D12C4619480078012800E01DE004D0C5
:10240000022806D003280BD107E0E12080014443D5
:1024100008E0E1200002444304E01148444301E0A5
:10242000022600BF00BF61080E4A88182146FFF748
:10243000E7F90D49087000BF00BF0348C7600020DE
:10244000034908603046F8BD001000400802002033
:102450000050004000010001FFFF00000C020020BE
:102460000077010000A8CB18090200200122920782
:10247000126852085200521C01239B071A601A4628
:10248000126802239A435B071A601A4612689B156A
:102490009A439B051A601A4612685B159A43D21834
:1024A0005B051A602C4A10702C4A11702A4A127867
:1024B000D207D20F002A23D1012904D0022909D042
:1024C000032916D10DE0D022254B1A70254A264B40
:1024D0001A8014E03422224B1A70244A224B1A80AC
:1024E0000DE01F221E4B1A70FF2278321E4B1A80FD
:1024F00005E000221A4B1A701B4B1A8000BF29E01E
:10250000154A1278D207D20F002A23D0012904D00D
:10251000022909D0032916D10DE0E222104B1A70CE
:10252000104A114B1A8014E038220D4B1A700F4AD2
:102530000D4B1A800DE02222094B1A70FF227832CF
:10254000094B1A8005E00022054B1A70064B1A80D1
:1025500000BF00BF70470000080200200C020020EE
:1025600009020020C40900000A02002071020000D4
:10257000F0B500218C463649CA68D2B29646354B32
:102580001A78D407344A32D0344C14605D782C0267
:102590002C43314A546054685B881B041C435460CC
:1025A00095042B6856151C46B44333430326F64363
:1025B000CE602C6015680126360635431560156817
:1025C0009615354315600F268E6003256D029560C4
:1025D0000A69AF053A430A611F4A95686D05AD0F58
:1025E000FBD00825C6071E4E04D0336003E01B4C09
:1025F000E41CCAE7346040080F268E60012676028C
:1026000096600E693E430E6196687605B60FFBD064
:102610006D1E2D062D0EE5D1114803600F20886038
:1026200001204002906008693843086190684005C5
:10263000800FFBD09068400501D501208446002022
:1026400010600320400290607046C8606046F0BD94
:10265000001000400802002000500040010004A8C3
:1026600000000040F8B50546174C002000900027F8
:10267000002D03DA2D20FFF77BFF6D421FE021467E
:102680002846FFF7BDF80646002E04D10098012821
:1026900001D0012C0BD131463031C8B2FFF768FFB1
:1026A0000746002F01D03846F8BD01200090304683
:1026B00060432D1A0A212046FFF7A2F80446002C99
:1026C000DDD13846F0E7000000CA9A3BF0B5054678
:1026D0000F46002680203840802803D122A000F039
:1026E000D5F80646002E01D03046F0BD2804000F74
:1026F00004463034392C01DDE01DC4B22046FFF71A
:1027000037FF0646002E01D03046EEE72805000FC1
:1027100004463034392C01DDE01DC4B22046FFF7F9
:1027200027FF0646002E01D03046DEE72806000FC0
:1027300004463034392C01DDE01DC4B22046FFF7D9
:1027400017FF0646002E01D03046CEE72807000FBF
:1027500004463034392C01DDE01DC4B22046FFF7B9
:1027600007FF06463046C0E730780000F0B5054662
:102770000F46002680203840802803D142A000F078
:1027800085F80646002E01D03046F0BD280F0446DD
:102790003034392C01DDE01DC4B22046FFF7E8FEDD
:1027A0000646002E01D03046EFE72801000F044610
:1027B0003034392C01DDE01DC4B22046FFF7D8FECD
:1027C0000646002E01D03046DFE72802000F0446FF
:1027D0003034392C01DDE01DC4B22046FFF7C8FEBD
:1027E0000646002E01D03046CFE72803000F0446EE
:1027F0003034392C01DDE01DC4B22046FFF7B8FEAD
:102800000646002E01D03046BFE72804000F0446DC
:102810003034392C01DDE01DC4B22046FFF7A8FE9C
:102820000646002E01D03046AFE72805000F0446CB
:102830003034392C01DDE01DC4B22046FFF798FE8C
:102840000646002E01D030469FE72806000F0446BA
:102850003034392C01DDE01DC4B22046FFF788FE7C
:102860000646002E01D030468FE72807000F0446A9
:102870003034392C01DDE01DC4B22046FFF778FE6C
:102880000646304681E700003078000030B5044647
:10289000002507E02078FFF76BFE0546641C002D3D
:1028A00000D002E020780028F4D100BF284630BDD7
:1028B0000FB410B503A9044B044A029800F02EF897
:1028C00010BC08BC04B018476D2A0010100200208C
:1028D0002021020C01D010211046020A01D010461E
:1028E0000839020901D01046091F820801D010469C
:1028F000891E420801D0881E7047081A704730B4FC
:102900007446641E2578641CAB4204D3635D5B008F
:10291000E31830BC18471D46F8E70000FFB58DB03E
:102920000446002506E025280AD0109A0F99904702
:10293000641C6D1C20780028F5D1284611B0F0BD2C
:1029400000270121484A009700E00743641C2378D0
:102950000846203B98401042F7D120782E2817D106
:10296000042007436078641C2A280CD10E98641C4C
:1029700002C800910E900BE000990A2251433039B1
:102980004018641C00902078014630390929F3D999
:1029900020780028D1D0642808D0692806D075286E
:1029A0001ED0109A0F9990476D1C5BE00A200E997B
:1029B000019001C90E91002802DA40422D2102E067
:1029C000390504D52B216A461172012103E0F9076C
:1029D00004D02021F7E70BAE0B910DE00021FAE7C0
:1029E0000A200E99019001C90E91F7E70199FEF7AF
:1029F00007FF3031761E31700028F7D103A8801B05
:102A000020300190780701D5009801E00120009066
:102A10000199884201DD401A00E000200027009063
:102A200006E002A8109AC05D0F9990476D1C7F1CAC
:102A30000B988742F5DB04E0109A30200F999047FD
:102A40006D1C0099481E00900029F5DC05E03078E7
:102A5000109A761C0F9990476D1C0199481E0190A1
:102A60000029F4DC641C65E70928010030B5044640
:102A70000D46E0B2FFF77CFD204630BDF8B50546B7
:102A80000E46174600241AE06008B04200D317E053
:102A9000E007C00F002805D16008285C0007000F80
:102AA000009007E06008285CF02108400090009842
:102AB00000110090009800F006F83855641CE3E718
:102AC00000BF0020F8BD00B502460F2A01DD01203D
:102AD00000BD1300FFF713FF0F090B0D0F111315A6
:102AE00017191B1D1F212325270000211DE0D221BE
:102AF0001BE0552119E0872117E0992115E04B21B2
:102B000013E0CC2111E01E210FE0E1210DE0332183
:102B10000BE0B42109E0662107E0782105E0AA2155
:102B200003E02D2101E0FF2100BF00BF0846CFE7F1
:102B3000F0B595B0FE4800680068401CFC49096883
:102B40000860222110A80171F9490968086811A9D3
:102B50000131FEF77FFE13A903310020FEF77AFE54
:102B6000032110A8C1741021F2A0FFF7A1FE0120DB
:102B7000800740680002C00F00287DD00120800738
:102B80008168EF488843FF2101310843490140181B
:102B900049000843490040180890C8034068089954
:102BA00008400446E007C00F002802D0012081073A
:102BB0004860FE202040002818D00120800740688F
:102BC00001208007406801208007406801208007BD
:102BD000406801208007406801208007406801208C
:102BE00080074068FE20012189074860FF200130EE
:102BF000204000287ED0FF2001308105486001215F
:102C00000020FFF733FC14211020FFF741F8059056
:102C10000598002802D00120FFF75EF8FFF764FB5B
:102C20000646002E02D00420FFF756F8FFF734F8CE
:102C300005900598002802D00320FFF74DF80020EA
:102C4000029003900490019000BF00270EE006A9B7
:102C50009C20FFF70DF86846408B790002AA50527D
:102C60006846418BB7A0FFF723FE7F1C052FEEDBE4
:102C700069460A89498900E0C9E05218694689898C
:102C800052186946C98952186946098A501805219F
:102C9000FEF7CCFD80B20190ADA00199FFF708FED0
:102CA000FF20F530FFF700F800270EE006A99C2072
:102CB000FEF7DEFF6846408B790002AA5052684654
:102CC000418BA0A0FFF7F4FD7F1C052FEEDB6946CA
:102CD0000A89498952186946898952186946C989F9
:102CE00052186946098A50180521FEF79FFD80B2E7
:102CF000009000E00CE09AA00099FFF7D9FD019A3E
:102D00000098801AC200811899A0FFF7D1FD00BF7A
:102D1000012040022040002838D001204002410517
:102D2000486001210020FFF7A1FB14211020FEF7CD
:102D3000AFFF0746002F02D00120FEF7CDFFFFF7BF
:102D4000D3FA0646002E02D00420FEF7C5FFFEF798
:102D5000A3FF0746002F02D00320FEF7BDFF11A9F5
:102D600006A8FFF759FA11AA012106A8FFF746F9AC
:102D700011AA012106A8FFF74DF811A906A8FFF72F
:102D8000D3F911A906A8FEF7A9FF00BF012040034F
:102D90002040002803D00120400341044860012066
:102DA00080032040002803D00120800301044860F4
:102DB0000120C0032040002803D00120C003C1032C
:102DC000486001208007456801468A68072189021A
:102DD00091430D40002D19D000152840002803D044
:102DE00001208002010548600120C002284000281F
:102DF00003D00120C002C104486001200003284024
:102E0000002803D001200003810448607FE00120F6
:102E1000800780680121490788434018490088607D
:102E200008468068884340188860084680684000EB
:102E30004008490040184908886000203C4909685A
:102E400008600120800740680003C00F00285BD0A5
:102E500014211020FEF71CFFC4B2002C02D0012068
:102E6000FEF73AFF00210720FEF7EEFEC4B2002C69
:102E700002D00220FEF730FFFEF70EFFC4B2002C96
:102E800002D00320FEF728FF6420FEF7CDFEC4B277
:102E9000002C02D00C20FEF71FFF0020FEF7F0FEF2
:102EA000C4B2002C02D00D20FEF716FF01208007CF
:102EB0000068012189068843401809010860084616
:102EC000006804218843001D09070860084600685F
:102ED0000915884340180905086008460068091369
:102EE00088434018090308600846806849158843EC
:102EF0004905886008468068091488430904886089
:102F00000020C043486002E00420FEF7E5FE0121F6
:102F100011A800F0A5F8042111A8013000F0A0F8D4
:102F2000012112A8013000F09BF8022112A827E02D
:102F30000402002073697A653A20256400000000CD
:102F4000FF0300007261773A2025640D0A0000003B
:102F500076616C5F74313A2025640D0A0000000030
:102F600076616C5F74323A2025640D0A000000001F
:102F70006465677265653A2025640D0A00000000EB
:102F8000023000F06DF8022113A800F069F8012169
:102F900013A8023000F064F8042113A8033000F0F5
:102FA0005FF8012114A8033000F05AF809AA102193
:102FB00011A8FFF763FD0020FEF772FE002015B098
:102FC000F0BD0000F0B513B406460199FEF7A2FD6E
:102FD00004460D4602460B4630460199FEF78BFD2E
:102FE000064601981B4B0F4600280CDA002230469B
:102FF000FEF7CEFD0CD90022174B30463946FEF7BE
:10300000DBFD1DD214E000223046FEF7C1FD08D2E0
:103010000022124B20462946FEF76DFD04460D4660
:103020000EE000220C4B30463946FEF7C5FD07D8AE
:1030300000220A4B20462946FEF7B8FC04460D46FE
:10304000019A69004908D20FD2072046114303B004
:10305000F0BD00000000E0BF0000E03F0000F03FD6
:1030600030B503461A46002000BF08E0145C4D1E30
:103070002D1A555D15544D1E2D1A5455401CCD0F5B
:103080006D186D108542F1DC30BD0000000C0000B1
:103090000000003000000000000000000000000000
:020000041000EA
:0453FC0000000000AD
:0400000510000829B6
:00000001FF
